{"abi":[{"type":"function","name":"allUsernames","inputs":[{"name":"","type":"uint256","internalType":"uint256"}],"outputs":[{"name":"","type":"string","internalType":"string"}],"stateMutability":"view"},{"type":"function","name":"deactivateProfile","inputs":[],"outputs":[],"stateMutability":"nonpayable"},{"type":"function","name":"facialHashToWallet","inputs":[{"name":"","type":"bytes32","internalType":"bytes32"}],"outputs":[{"name":"","type":"address","internalType":"address"}],"stateMutability":"view"},{"type":"function","name":"getTotalUsers","inputs":[],"outputs":[{"name":"","type":"uint256","internalType":"uint256"}],"stateMutability":"view"},{"type":"function","name":"getUserProfile","inputs":[{"name":"wallet","type":"address","internalType":"address"}],"outputs":[{"name":"","type":"tuple","internalType":"struct UsernameRegistry.UserProfile","components":[{"name":"username","type":"string","internalType":"string"},{"name":"wallet","type":"address","internalType":"address"},{"name":"facialHash","type":"bytes32","internalType":"bytes32"},{"name":"registrationTimestamp","type":"uint256","internalType":"uint256"},{"name":"isActive","type":"bool","internalType":"bool"}]}],"stateMutability":"view"},{"type":"function","name":"getUsernameByIndex","inputs":[{"name":"index","type":"uint256","internalType":"uint256"}],"outputs":[{"name":"","type":"string","internalType":"string"}],"stateMutability":"view"},{"type":"function","name":"isFacialHashUsed","inputs":[{"name":"facialHash","type":"bytes32","internalType":"bytes32"}],"outputs":[{"name":"","type":"bool","internalType":"bool"}],"stateMutability":"view"},{"type":"function","name":"isUsernameAvailable","inputs":[{"name":"username","type":"string","internalType":"string"}],"outputs":[{"name":"","type":"bool","internalType":"bool"}],"stateMutability":"view"},{"type":"function","name":"registerUsername","inputs":[{"name":"username","type":"string","internalType":"string"},{"name":"facialHash","type":"bytes32","internalType":"bytes32"}],"outputs":[],"stateMutability":"nonpayable"},{"type":"function","name":"resolveUsername","inputs":[{"name":"username","type":"string","internalType":"string"}],"outputs":[{"name":"","type":"address","internalType":"address"}],"stateMutability":"view"},{"type":"function","name":"resolveWallet","inputs":[{"name":"wallet","type":"address","internalType":"address"}],"outputs":[{"name":"","type":"string","internalType":"string"}],"stateMutability":"view"},{"type":"function","name":"updateUsername","inputs":[{"name":"newUsername","type":"string","internalType":"string"}],"outputs":[],"stateMutability":"nonpayable"},{"type":"function","name":"userProfiles","inputs":[{"name":"","type":"address","internalType":"address"}],"outputs":[{"name":"username","type":"string","internalType":"string"},{"name":"wallet","type":"address","internalType":"address"},{"name":"facialHash","type":"bytes32","internalType":"bytes32"},{"name":"registrationTimestamp","type":"uint256","internalType":"uint256"},{"name":"isActive","type":"bool","internalType":"bool"}],"stateMutability":"view"},{"type":"function","name":"usernameToWallet","inputs":[{"name":"","type":"string","internalType":"string"}],"outputs":[{"name":"","type":"address","internalType":"address"}],"stateMutability":"view"},{"type":"function","name":"walletToUsername","inputs":[{"name":"","type":"address","internalType":"address"}],"outputs":[{"name":"","type":"string","internalType":"string"}],"stateMutability":"view"},{"type":"event","name":"ProfileDeactivated","inputs":[{"name":"username","type":"string","indexed":true,"internalType":"string"},{"name":"wallet","type":"address","indexed":true,"internalType":"address"}],"anonymous":false},{"type":"event","name":"UsernameRegistered","inputs":[{"name":"username","type":"string","indexed":true,"internalType":"string"},{"name":"wallet","type":"address","indexed":true,"internalType":"address"},{"name":"facialHash","type":"bytes32","indexed":false,"internalType":"bytes32"}],"anonymous":false},{"type":"event","name":"UsernameUpdated","inputs":[{"name":"oldUsername","type":"string","indexed":false,"internalType":"string"},{"name":"newUsername","type":"string","indexed":false,"internalType":"string"},{"name":"wallet","type":"address","indexed":true,"internalType":"address"}],"anonymous":false},{"type":"error","name":"FacialHashAlreadyUsed","inputs":[]},{"type":"error","name":"InvalidUsername","inputs":[]},{"type":"error","name":"UserAlreadyRegistered","inputs":[]},{"type":"error","name":"UserNotFound","inputs":[]},{"type":"error","name":"UsernameAlreadyTaken","inputs":[]}],"bytecode":{"object":"0x6080604052348015600e575f5ffd5b506113218061001c5f395ff3fe608060405234801561000f575f5ffd5b50600436106100f0575f3560e01c80638a5e3a4811610093578063bfd31cd911610063578063bfd31cd914610249578063c96cea7014610271578063e3d2c46d14610284578063f69c6dec14610297575f5ffd5b80638a5e3a48146101d2578063987ee156146102055780639be572f614610225578063ba172cab14610236575f5ffd5b8063221dafc1116100ce578063221dafc11461015d578063332d56d7146101705780637d1febd4146101945780637ff69c34146101bf575f5ffd5b8063036842b6146100f45780630bac9fe71461013357806320a17bca14610153575b5f5ffd5b61011e610102366004610dc4565b5f908152600360205260409020546001600160a01b0316151590565b60405190151581526020015b60405180910390f35b610146610141366004610dc4565b6102aa565b60405161012a9190610e09565b61015b6103a1565b005b61015b61016b366004610e67565b610542565b61018361017e366004610eaf565b6107fb565b60405161012a959493929190610ed5565b6101a76101a2366004610f16565b6108bc565b6040516001600160a01b03909116815260200161012a565b6101466101cd366004610eaf565b6108ef565b6101a76101e0366004610f69565b80516020818301810180515f825292820191909301209152546001600160a01b031681565b610218610213366004610eaf565b610915565b60405161012a919061101c565b60045460405190815260200161012a565b610146610244366004610eaf565b610a3c565b6101a7610257366004610dc4565b60036020525f90815260409020546001600160a01b031681565b61015b61027f366004610f16565b610ad3565b610146610292366004610dc4565b610d0d565b61011e6102a5366004610f16565b610d34565b60045460609082106102f85760405162461bcd60e51b8152602060048201526013602482015272496e646578206f7574206f6620626f756e647360681b604482015260640160405180910390fd5b6004828154811061030b5761030b611075565b905f5260205f2001805461031e90611089565b80601f016020809104026020016040519081016040528092919081815260200182805461034a90611089565b80156103955780601f1061036c57610100808354040283529160200191610395565b820191905f5260205f20905b81548152906001019060200180831161037857829003601f168201915b50505050509050919050565b335f90815260016020526040902080546103ba90611089565b90505f036103db576040516319c29a3360e21b815260040160405180910390fd5b335f90815260016020526040812080546103f490611089565b80601f016020809104026020016040519081016040528092919081815260200182805461042090611089565b801561046b5780601f106104425761010080835404028352916020019161046b565b820191905f5260205f20905b81548152906001019060200180831161044e57829003601f168201915b5050335f9081526002602081905260408083209091015490519596509490935061049892508591506110c1565b908152604080516020928190038301902080546001600160a01b0319169055335f908152600190925281206104cc91610d72565b5f81815260036020908152604080832080546001600160a01b031916905533808452600290925291829020600401805460ff19169055905161050f9084906110c1565b604051908190038120907f6f3020e203aa04e54da66ed9a2ad7e3bcd778ebf50694d96847e9396c63a735b905f90a35050565b82828015806105515750602081115b1561056f57604051630a1de65160e31b815260040160405180910390fd5b5f6001600160a01b03165f868660405161058a9291906110d7565b908152604051908190036020019020546001600160a01b0316146105c157604051639e9987d960e01b815260040160405180910390fd5b335f90815260016020526040902080546105da90611089565b1590506105fa57604051634f2532fb60e11b815260040160405180910390fd5b5f838152600360205260409020546001600160a01b03161561062f5760405163966e730160e01b815260040160405180910390fd5b335f86866040516106419291906110d7565b908152604080516020928190038301902080546001600160a01b0319166001600160a01b039490941693909317909255335f908152600190915220610687858783611132565b505f8381526003602090815260409182902080546001600160a01b03191633179055815160c0601f88018390049092028101820190925260a08201868152829188908890819085018382808284375f920182905250938552505033602080850182905260408086018a905242606087015260016080909601959095529083526002905250208151819061071a90826111ec565b506020820151600182810180546001600160a01b0319166001600160a01b039093169290921790915560408301516002830155606083015160038301556080909201516004918201805460ff1916911515919091179055805491820181555f527f8a35acfbc15ff81a39ae7d344fd709f28e8600b4aa8c65c6b64bfe7fe36bd19b016107a7858783611132565b5060405133906107ba90879087906110d7565b604051908190038120858252907f31402e87a12772465d5cd0cae6c0662ff78619fc24b6cad46c4881406586ab4c9060200160405180910390a35050505050565b60026020525f908152604090208054819061081590611089565b80601f016020809104026020016040519081016040528092919081815260200182805461084190611089565b801561088c5780601f106108635761010080835404028352916020019161088c565b820191905f5260205f20905b81548152906001019060200180831161086f57829003601f168201915b5050505060018301546002840154600385015460049095015493946001600160a01b039092169390925060ff1685565b5f5f83836040516108ce9291906110d7565b908152604051908190036020019020546001600160a01b0316905092915050565b6001600160a01b0381165f90815260016020526040902080546060919061031e90611089565b61094e6040518060a00160405280606081526020015f6001600160a01b031681526020015f81526020015f81526020015f151581525090565b6001600160a01b0382165f9081526002602052604090819020815160a0810190925280548290829061097f90611089565b80601f01602080910402602001604051908101604052809291908181526020018280546109ab90611089565b80156109f65780601f106109cd576101008083540402835291602001916109f6565b820191905f5260205f20905b8154815290600101906020018083116109d957829003601f168201915b505050918352505060018201546001600160a01b03166020820152600282015460408201526003820154606082015260049091015460ff16151560809091015292915050565b60016020525f908152604090208054610a5490611089565b80601f0160208091040260200160405190810160405280929190818152602001828054610a8090611089565b8015610acb5780601f10610aa257610100808354040283529160200191610acb565b820191905f5260205f20905b815481529060010190602001808311610aae57829003601f168201915b505050505081565b8181801580610ae25750602081115b15610b0057604051630a1de65160e31b815260040160405180910390fd5b335f9081526001602052604090208054610b1990611089565b90505f03610b3a576040516319c29a3360e21b815260040160405180910390fd5b5f6001600160a01b03165f8585604051610b559291906110d7565b908152604051908190036020019020546001600160a01b031614610b8c57604051639e9987d960e01b815260040160405180910390fd5b335f9081526001602052604081208054610ba590611089565b80601f0160208091040260200160405190810160405280929190818152602001828054610bd190611089565b8015610c1c5780601f10610bf357610100808354040283529160200191610c1c565b820191905f5260205f20905b815481529060010190602001808311610bff57829003601f168201915b505050505090505f81604051610c3291906110c1565b90815260405190819003602001812080546001600160a01b031916905533905f90610c6090889088906110d7565b908152604080516020928190038301902080546001600160a01b0319166001600160a01b039490941693909317909255335f908152600190915220610ca6858783611132565b50335f908152600260205260409020610cc0858783611132565b50336001600160a01b03167f4f9b4ac20d4ba01337d029edad423886fbe524a713e2f2a469562688c4ad67ba828787604051610cfe939291906112a7565b60405180910390a25050505050565b60048181548110610d1c575f80fd5b905f5260205f20015f915090508054610a5490611089565b5f5f6001600160a01b03165f8484604051610d509291906110d7565b908152604051908190036020019020546001600160a01b031614905092915050565b508054610d7e90611089565b5f825580601f10610d8d575050565b601f0160209004905f5260205f2090810190610da99190610dac565b50565b5b80821115610dc0575f8155600101610dad565b5090565b5f60208284031215610dd4575f5ffd5b5035919050565b5f81518084528060208401602086015e5f602082860101526020601f19601f83011685010191505092915050565b602081525f610e1b6020830184610ddb565b9392505050565b5f5f83601f840112610e32575f5ffd5b50813567ffffffffffffffff811115610e49575f5ffd5b602083019150836020828501011115610e60575f5ffd5b9250929050565b5f5f5f60408486031215610e79575f5ffd5b833567ffffffffffffffff811115610e8f575f5ffd5b610e9b86828701610e22565b909790965060209590950135949350505050565b5f60208284031215610ebf575f5ffd5b81356001600160a01b0381168114610e1b575f5ffd5b60a081525f610ee760a0830188610ddb565b6001600160a01b0396909616602083015250604081019390935260608301919091521515608090910152919050565b5f5f60208385031215610f27575f5ffd5b823567ffffffffffffffff811115610f3d575f5ffd5b610f4985828601610e22565b90969095509350505050565b634e487b7160e01b5f52604160045260245ffd5b5f60208284031215610f79575f5ffd5b813567ffffffffffffffff811115610f8f575f5ffd5b8201601f81018413610f9f575f5ffd5b803567ffffffffffffffff811115610fb957610fb9610f55565b604051601f8201601f19908116603f0116810167ffffffffffffffff81118282101715610fe857610fe8610f55565b604052818152828201602001861015610fff575f5ffd5b816020840160208301375f91810160200191909152949350505050565b602081525f825160a0602084015261103760c0840182610ddb565b905060018060a01b03602085015116604084015260408401516060840152606084015160808401526080840151151560a08401528091505092915050565b634e487b7160e01b5f52603260045260245ffd5b600181811c9082168061109d57607f821691505b6020821081036110bb57634e487b7160e01b5f52602260045260245ffd5b50919050565b5f82518060208501845e5f920191825250919050565b818382375f9101908152919050565b601f82111561112d57805f5260205f20601f840160051c8101602085101561110b5750805b601f840160051c820191505b8181101561112a575f8155600101611117565b50505b505050565b67ffffffffffffffff83111561114a5761114a610f55565b61115e836111588354611089565b836110e6565b5f601f84116001811461118f575f85156111785750838201355b5f19600387901b1c1916600186901b17835561112a565b5f83815260208120601f198716915b828110156111be578685013582556020948501946001909201910161119e565b50868210156111da575f1960f88860031b161c19848701351681555b505060018560011b0183555050505050565b815167ffffffffffffffff81111561120657611206610f55565b61121a816112148454611089565b846110e6565b6020601f82116001811461124c575f83156112355750848201515b5f19600385901b1c1916600184901b17845561112a565b5f84815260208120601f198516915b8281101561127b578785015182556020948501946001909201910161125b565b508482101561129857868401515f19600387901b60f8161c191681555b50505050600190811b01905550565b604081525f6112b96040830186610ddb565b8281036020840152838152838560208301375f602085830101526020601f19601f86011682010191505094935050505056fea26469706673582212205937f5533f9da441e14877867cca01e8c8f280c09aeb7a6b59bd278ffa1001af64736f6c634300081c0033","linkReferences":{}},"methodIdentifiers":{"allUsernames(uint256)":"e3d2c46d","deactivateProfile()":"20a17bca","facialHashToWallet(bytes32)":"bfd31cd9","getTotalUsers()":"9be572f6","getUserProfile(address)":"987ee156","getUsernameByIndex(uint256)":"0bac9fe7","isFacialHashUsed(bytes32)":"036842b6","isUsernameAvailable(string)":"f69c6dec","registerUsername(string,bytes32)":"221dafc1","resolveUsername(string)":"7d1febd4","resolveWallet(address)":"7ff69c34","updateUsername(string)":"c96cea70","userProfiles(address)":"332d56d7","usernameToWallet(string)":"8a5e3a48","walletToUsername(address)":"ba172cab"},"id":3}