{"abi":[{"type":"constructor","inputs":[{"name":"_kernelFactory","type":"address","internalType":"address"},{"name":"_frvmValidator","type":"address","internalType":"address"},{"name":"_kernelImplementation","type":"address","internalType":"address"}],"stateMutability":"nonpayable"},{"type":"function","name":"createWallet","inputs":[{"name":"username","type":"string","internalType":"string"},{"name":"facialHash","type":"bytes32","internalType":"bytes32"},{"name":"index","type":"uint256","internalType":"uint256"}],"outputs":[{"name":"wallet","type":"address","internalType":"address"}],"stateMutability":"nonpayable"},{"type":"function","name":"deployedWallets","inputs":[{"name":"","type":"bytes32","internalType":"bytes32"}],"outputs":[{"name":"","type":"address","internalType":"address"}],"stateMutability":"view"},{"type":"function","name":"frvmValidator","inputs":[],"outputs":[{"name":"","type":"address","internalType":"contract IFaceRecognitionValidator"}],"stateMutability":"view"},{"type":"function","name":"getWalletBySalt","inputs":[{"name":"salt","type":"bytes32","internalType":"bytes32"}],"outputs":[{"name":"","type":"address","internalType":"address"}],"stateMutability":"view"},{"type":"function","name":"isValidWallet","inputs":[{"name":"","type":"address","internalType":"address"}],"outputs":[{"name":"","type":"bool","internalType":"bool"}],"stateMutability":"view"},{"type":"function","name":"isWalletValid","inputs":[{"name":"wallet","type":"address","internalType":"address"}],"outputs":[{"name":"","type":"bool","internalType":"bool"}],"stateMutability":"view"},{"type":"function","name":"kernelFactory","inputs":[],"outputs":[{"name":"","type":"address","internalType":"contract IKernelFactory"}],"stateMutability":"view"},{"type":"function","name":"kernelImplementation","inputs":[],"outputs":[{"name":"","type":"address","internalType":"address"}],"stateMutability":"view"},{"type":"function","name":"predictWalletAddress","inputs":[{"name":"facialHash","type":"bytes32","internalType":"bytes32"},{"name":"index","type":"uint256","internalType":"uint256"}],"outputs":[{"name":"","type":"address","internalType":"address"}],"stateMutability":"view"},{"type":"event","name":"WalletDeployed","inputs":[{"name":"wallet","type":"address","indexed":true,"internalType":"address"},{"name":"owner","type":"address","indexed":true,"internalType":"address"},{"name":"salt","type":"bytes32","indexed":false,"internalType":"bytes32"},{"name":"username","type":"string","indexed":false,"internalType":"string"},{"name":"facialHash","type":"bytes32","indexed":false,"internalType":"bytes32"}],"anonymous":false}],"bytecode":{"object":"0x60e060405234801561000f575f5ffd5b5060405161097638038061097683398101604081905261002e91610066565b6001600160a01b0392831660805290821660a0521660c0526100a6565b80516001600160a01b0381168114610061575f5ffd5b919050565b5f5f5f60608486031215610078575f5ffd5b6100818461004b565b925061008f6020850161004b565b915061009d6040850161004b565b90509250925092565b60805160a05160c0516108756101015f395f818161012d0152818161035a015261057501525f818161010601528181610222015281816103ed01526104f801525f81816101540152818161032d01526105ca01526108755ff3fe608060405234801561000f575f5ffd5b5060043610610090575f3560e01c806338265ef41161006357806338265ef41461014f578063439a30121461017657806382d79281146101a857806388f2124a146101bb578063ba51a7b3146101ce575f5ffd5b80631ea6c2db1461009457806325dd6f91146100d95780632c2e14cf1461010157806335b837bb14610128575b5f5ffd5b6100bc6100a2366004610627565b5f602081905290815260409020546001600160a01b031681565b6040516001600160a01b0390911681526020015b60405180910390f35b6100bc6100e7366004610627565b5f908152602081905260409020546001600160a01b031690565b6100bc7f000000000000000000000000000000000000000000000000000000000000000081565b6100bc7f000000000000000000000000000000000000000000000000000000000000000081565b6100bc7f000000000000000000000000000000000000000000000000000000000000000081565b610198610184366004610655565b60016020525f908152604090205460ff1681565b60405190151581526020016100d0565b6100bc6101b6366004610677565b6101f9565b6100bc6101c93660046106f1565b6104cf565b6101986101dc366004610655565b6001600160a01b03165f9081526001602052604090205460ff1690565b6040516339eb0cbd60e21b815260048101839052602481018290525f9081906001600160a01b037f0000000000000000000000000000000000000000000000000000000000000000169063e7ac32f490604401602060405180830381865afa158015610267573d5f5f3e3d5ffd5b505050506040513d601f19601f8201168201806040525081019061028b9190610711565b5f818152602081905260409020549091506001600160a01b0316156102ee5760405162461bcd60e51b815260206004820152601560248201527457616c6c657420616c72656164792065786973747360581b604482015260640160405180910390fd5b5f868686866040516020016103069493929190610750565b60408051601f198184030181529082905263296601cd60e01b825291506001600160a01b037f0000000000000000000000000000000000000000000000000000000000000000169063296601cd90610386907f000000000000000000000000000000000000000000000000000000000000000090859087906004016107a4565b6020604051808303815f875af11580156103a2573d5f5f3e3d5ffd5b505050506040513d601f19601f820116820180604052508101906103c691906107d7565b60405163347d5e2560e21b81529093506001600160a01b0384169063d1f5789490610417907f00000000000000000000000000000000000000000000000000000000000000009085906004016107f2565b5f604051808303815f87803b15801561042e575f5ffd5b505af1158015610440573d5f5f3e3d5ffd5b5050505f8381526020818152604080832080546001600160a01b0319166001600160a01b03891690811790915580845260019283905292819020805460ff1916909217909155513392507f07f0e218dc54609f7c445fc23d15f45e5c95dcbbe57cbe30bbbbeb04122c7fde906104bd9086908c908c908c90610815565b60405180910390a35050949350505050565b6040516339eb0cbd60e21b815260048101839052602481018290525f9081906001600160a01b037f0000000000000000000000000000000000000000000000000000000000000000169063e7ac32f490604401602060405180830381865afa15801561053d573d5f5f3e3d5ffd5b505050506040513d601f19601f820116820180604052508101906105619190610711565b604080516bffffffffffffffffffffffff197f0000000000000000000000000000000000000000000000000000000000000000606090811b8216602080850191909152845180850360140181526034850186528051908201206001600160f81b031960548601527f000000000000000000000000000000000000000000000000000000000000000090921b9092166055840152606983018590526089808401919091528351808403909101815260a990920190925280519101209091505b949350505050565b5f60208284031215610637575f5ffd5b5035919050565b6001600160a01b0381168114610652575f5ffd5b50565b5f60208284031215610665575f5ffd5b81356106708161063e565b9392505050565b5f5f5f5f6060858703121561068a575f5ffd5b843567ffffffffffffffff8111156106a0575f5ffd5b8501601f810187136106b0575f5ffd5b803567ffffffffffffffff8111156106c6575f5ffd5b8760208284010111156106d7575f5ffd5b602091820198909750908601359560400135945092505050565b5f5f60408385031215610702575f5ffd5b50508035926020909101359150565b5f60208284031215610721575f5ffd5b5051919050565b81835281816020850137505f828201602090810191909152601f909101601f19169091010190565b606081525f610763606083018688610728565b6020830194909452506040015292915050565b5f81518084528060208401602086015e5f602082860101526020601f19601f83011685010191505092915050565b6001600160a01b03841681526060602082018190525f906107c790830185610776565b9050826040830152949350505050565b5f602082840312156107e7575f5ffd5b81516106708161063e565b6001600160a01b03831681526040602082018190525f9061061f90830184610776565b848152606060208201525f61082e606083018587610728565b90508260408301529594505050505056fea264697066735822122045612cebf758b9c28cd212b0942759ff407226fdc12b24f512203c000499bcdf64736f6c634300081c0033","linkReferences":{}},"methodIdentifiers":{"createWallet(string,bytes32,uint256)":"82d79281","deployedWallets(bytes32)":"1ea6c2db","frvmValidator()":"2c2e14cf","getWalletBySalt(bytes32)":"25dd6f91","isValidWallet(address)":"439a3012","isWalletValid(address)":"ba51a7b3","kernelFactory()":"38265ef4","kernelImplementation()":"35b837bb","predictWalletAddress(bytes32,uint256)":"88f2124a"},"id":1}