{"abi":[{"type":"function","name":"deployFRVMValidator","inputs":[{"name":"lzEndpoint","type":"address","internalType":"address"}],"outputs":[{"name":"","type":"address","internalType":"address"}],"stateMutability":"nonpayable"},{"type":"function","name":"deployValidatorWithSalt","inputs":[{"name":"lzEndpoint","type":"address","internalType":"address"},{"name":"salt","type":"uint256","internalType":"uint256"}],"outputs":[{"name":"","type":"address","internalType":"address"}],"stateMutability":"nonpayable"},{"type":"function","name":"isDeployedModule","inputs":[{"name":"","type":"address","internalType":"address"}],"outputs":[{"name":"","type":"bool","internalType":"bool"}],"stateMutability":"view"},{"type":"function","name":"predictValidatorAddress","inputs":[{"name":"lzEndpoint","type":"address","internalType":"address"},{"name":"salt","type":"uint256","internalType":"uint256"}],"outputs":[{"name":"","type":"address","internalType":"address"}],"stateMutability":"view"},{"type":"event","name":"ModuleDeployed","inputs":[{"name":"module","type":"address","indexed":true,"internalType":"address"},{"name":"deployer","type":"address","indexed":true,"internalType":"address"},{"name":"chainId","type":"uint256","indexed":false,"internalType":"uint256"}],"anonymous":false}],"bytecode":{"object":"0x6080604052348015600e575f5ffd5b506120378061001c5f395ff3fe608060405234801561000f575f5ffd5b506004361061004a575f3560e01c80632ead24211461004e5780633db506321461007e5780636c8fec33146100915780638d0cb518146100c3575b5f5ffd5b61006161005c3660046103a5565b6100d6565b6040516001600160a01b0390911681526020015b60405180910390f35b61006161008c3660046103cd565b6101af565b6100b361009f3660046103cd565b5f6020819052908152604090205460ff1681565b6040519015158152602001610075565b6100616100d13660046103a5565b61024f565b5f5f60ff60f81b3084604051806020016100ef9061037d565b601f1982820381018352601f9091011660408181526001600160a01b038a1660208301520160408051601f19818403018152908290526101329291602001610404565b6040516020818303038152906040528051906020012060405160200161018f94939291906001600160f81b031994909416845260609290921b6bffffffffffffffffffffffff191660018401526015830152603582015260550190565b60408051808303601f190181529190528051602090910120949350505050565b5f5f826040516101be9061037d565b6001600160a01b039091168152602001604051809103905ff0801580156101e7573d5f5f3e3d5ffd5b506001600160a01b0381165f8181526020819052604090819020805460ff191660011790555191925033917f514b92b9d93e532eab8648ac7f211ac940c33b97d9994661df2bff4fb3138c00906102419046815260200190565b60405180910390a392915050565b5f5f604051806020016102619061037d565b601f1982820381018352601f9091011660408181526001600160a01b03871660208301520160408051601f19818403018152908290526102a49291602001610404565b6040516020818303038152906040528051906020012090505f838251602084015ff590506001600160a01b0381166103165760405162461bcd60e51b815260206004820152601160248201527011195c1b1bde5b595b9d0819985a5b1959607a1b604482015260640160405180910390fd5b6001600160a01b0381165f8181526020819052604090819020805460ff19166001179055513391907f514b92b9d93e532eab8648ac7f211ac940c33b97d9994661df2bff4fb3138c009061036d9046815260200190565b60405180910390a3949350505050565b611be18061042183390190565b80356001600160a01b03811681146103a0575f5ffd5b919050565b5f5f604083850312156103b6575f5ffd5b6103bf8361038a565b946020939093013593505050565b5f602082840312156103dd575f5ffd5b6103e68261038a565b9392505050565b5f81518060208401855e5f93019283525090919050565b5f61041861041283866103ed565b846103ed565b94935050505056fe60a0604052348015600e575f5ffd5b50604051611be1380380611be1833981016040819052602b91603b565b6001600160a01b03166080526066565b5f60208284031215604a575f5ffd5b81516001600160a01b0381168114605f575f5ffd5b9392505050565b608051611b5561008c5f395f81816102f00152818161045b01526106c80152611b555ff3fe60806040526004361061011a575f3560e01c80639f42af631161009d578063e7ac32f411610062578063e7ac32f41461039f578063eb8d72b7146103e5578063ecd0596114610404578063f551e2ee14610269578063ffc9896b14610424575f5ffd5b80639f42af63146102c0578063b353aaa7146102df578063c891091314610312578063d60b347f14610342578063e2680a6b14610380575f5ffd5b80638a5e3a48116100e35780638a5e3a48146101c55780638a91b0e31461021d578063970032031461023c578063971604c6146102695780639b81d932146102a1575f5ffd5b80621d35671461011e578063699bd5dd1461013f5780636b523d0d1461015e5780636d61fe70146101715780637533d78814610190575b5f5ffd5b348015610129575f5ffd5b5061013d61013836600461110b565b610450565b005b34801561014a575f5ffd5b5061013d6101593660046111a6565b610578565b61013d61016c3660046111d3565b61061a565b34801561017c575f5ffd5b5061013d61018b366004611204565b61078c565b34801561019b575f5ffd5b506101af6101aa366004611242565b6107ff565b6040516101bc9190611289565b60405180910390f35b3480156101d0575f5ffd5b506102056101df366004611342565b80516020818301810180516001825292820191909301209152546001600160a01b031681565b6040516001600160a01b0390911681526020016101bc565b348015610228575f5ffd5b5061013d610237366004611204565b610896565b348015610247575f5ffd5b5061025b61025636600461137b565b6109e6565b6040519081526020016101bc565b348015610274575f5ffd5b506102886102833660046113c1565b610a3b565b6040516001600160e01b031990911681526020016101bc565b3480156102ac575f5ffd5b5061013d6102bb366004611416565b610a80565b3480156102cb575f5ffd5b506102056102da366004611204565b610ac9565b3480156102ea575f5ffd5b506102057f000000000000000000000000000000000000000000000000000000000000000081565b34801561031d575f5ffd5b5061033161032c366004611462565b610afd565b6040516101bc95949392919061147b565b34801561034d575f5ffd5b5061037061035c366004611462565b60026020525f908152604090205460ff1681565b60405190151581526020016101bc565b34801561038b575f5ffd5b5061037061039a3660046114b0565b610bb7565b3480156103aa575f5ffd5b5061025b6103b9366004611508565b604080516020808201949094528082019290925280518083038201815260609092019052805191012090565b3480156103f0575f5ffd5b5061013d6103ff366004611528565b610bd5565b34801561040f575f5ffd5b5061037061041e3660046111a6565b60011490565b34801561042f575f5ffd5b5061044361043e366004611462565b610bf2565b6040516101bc9190611576565b336001600160a01b037f000000000000000000000000000000000000000000000000000000000000000016146104c05760405162461bcd60e51b815260206004820152601060248201526f125b9d985b1a5908195b991c1bda5b9d60821b60448201526064015b60405180910390fd5b61ffff86165f908152600360205260409081902090516104e091906115ff565b604051809103902085856040516104f8929190611670565b60405180910390201461053e5760405162461bcd60e51b815260206004820152600e60248201526d496e76616c696420736f7572636560901b60448201526064016104b7565b5f808061054d8486018661167f565b9250925092505f61055e8383610d06565b905061056c81858585610d44565b50505050505050505050565b335f9081526020819052604090206003015460ff166105aa57604051632163950f60e01b815260040160405180910390fd5b806105c85760405163486df20160e11b815260040160405180910390fd5b335f8181526020818152604091829020805490859055825181815291820185905292917f5f5ec5402198e11b2fe92c08934ec29f641de7aaec9aca1508bad69583792674910160405180910390a25050565b6001600160a01b0381165f9081526020819052604090206003015460ff1661065557604051632163950f60e01b815260040160405180910390fd5b6001600160a01b0381165f9081526020818152604080832080546002820154925161068894600190930193919201611747565b60408051601f1981840301815261ffff86165f908152600360209081528382209085018452818552925162c5803160e81b81529194506001600160a01b037f0000000000000000000000000000000000000000000000000000000000000000169363c5803100933493610705938a9389923392919060040161176b565b5f604051808303818588803b15801561071c575f5ffd5b505af115801561072e573d5f5f3e3d5ffd5b505050506001600160a01b0383165f818152602081815260409182902054825161ffff89168152918201529192507fb3a419adfb9f9b4671246bbb0320eac081a6e8fd7849ce098713319f1408669b910160405180910390a2505050565b335f9081526002602052604090205460ff16156107be576040516393360fbf60e01b81523360048201526024016104b7565b5f80806107cd8486018661167f565b9250925092506107df33848484610d44565b5050335f908152600260205260409020805460ff19166001179055505050565b60036020525f908152604090208054610817906115c7565b80601f0160208091040260200160405190810160405280929190818152602001828054610843906115c7565b801561088e5780601f106108655761010080835404028352916020019161088e565b820191905f5260205f20905b81548152906001019060200180831161087157829003601f168201915b505050505081565b335f9081526002602052604090205460ff166108c75760405163f91bd6f160e01b81523360048201526024016104b7565b335f90815260208190526040812060010180546108e3906115c7565b80601f016020809104026020016040519081016040528092919081815260200182805461090f906115c7565b801561095a5780601f106109315761010080835404028352916020019161095a565b820191905f5260205f20905b81548152906001019060200180831161093d57829003601f168201915b5050335f9081526020819052604081208181559495509250610982915050600183018261105f565b505f6002820181905560038201805460ff191690556004909101556040516001906109ae9083906117d1565b908152604080516020928190038301902080546001600160a01b0319169055335f90815260029092529020805460ff19169055505050565b5f806109f66101008501856117e7565b810190610a0391906118b5565b90505f610a1d610a166020870187611462565b8584610eb8565b905080610a2b576001610a2d565b5f5b60ff16925050505b92915050565b5f80610a49838501856118b5565b90505f610a57878784610eb8565b905080610a6c576001600160e01b0319610a75565b630b135d3f60e11b5b979650505050505050565b610ac33385858080601f0160208091040260200160405190810160405280939291908181526020018383808284375f92019190915250879250869150610d449050565b50505050565b5f60018383604051610adc929190611670565b908152604051908190036020019020546001600160a01b0316905092915050565b5f6020819052908152604090208054600182018054919291610b1e906115c7565b80601f0160208091040260200160405190810160405280929190818152602001828054610b4a906115c7565b8015610b955780601f10610b6c57610100808354040283529160200191610b95565b820191905f5260205f20905b815481529060010190602001808311610b7857829003601f168201915b50505050600283015460038401546004909401549293909260ff909116915085565b5f610bcb8484610bc6856118e6565b610eb8565b90505b9392505050565b61ffff83165f908152600360205260409020610ac382848361193d565b610c226040518060a001604052805f8152602001606081526020015f81526020015f151581526020015f81525090565b6001600160a01b0382165f9081526020818152604091829020825160a08101909352805483526001810180549192840191610c5c906115c7565b80601f0160208091040260200160405190810160405280929190818152602001828054610c88906115c7565b8015610cd35780601f10610caa57610100808354040283529160200191610cd3565b820191905f5260205f20905b815481529060010190602001808311610cb657829003601f168201915b505050918352505060028201546020820152600382015460ff161515604082015260049091015460609091015292915050565b5f5f8383604051602001610d24929190918252602082015260400190565b60408051808303601f190181529190528051602090910120949350505050565b81610d625760405163486df20160e11b815260040160405180910390fd5b5f6001600160a01b0316600184604051610d7c91906117d1565b908152604051908190036020019020546001600160a01b031614610db357604051639e9987d960e01b815260040160405180910390fd5b6040805160a08101825283815260208082018681528284018590526001606084018190524260808501526001600160a01b0389165f90815292839052939091208251815590519192909190820190610e0b90826119f6565b506040828101516002830155606083015160038301805460ff1916911515919091179055608090920151600490910155518490600190610e4c9086906117d1565b90815260405190819003602001812080546001600160a01b039384166001600160a01b0319909116179055908516907fccd232d370002532b298c205b90d1c287a6f1913b8c7113733b47a81fece11a090610eaa9086908690611ab0565b60405180910390a250505050565b6001600160a01b0383165f9081526020819052604081206003015460ff16610ee157505f610bce565b6001600160a01b0384165f90815260208190526040902054825114610f0757505f610bce565b610bcb83835f015184604001515f606082511015610f2657505f610bce565b60208201516040830151848214610f41575f92505050610bce565b610f4d8161012c611ae5565b421115610f5e575f92505050610bce565b5f60408551610f6d9190611af8565b6001600160401b03811115610f8457610f8461129b565b6040519080825280601f01601f191660200182016040528015610fae576020820181803683370190505b50905060405b855181101561101857858181518110610fcf57610fcf611b0b565b01602001516001600160f81b03191682610fea604084611af8565b81518110610ffa57610ffa611b0b565b60200101906001600160f81b03191690815f1a905350600101610fb4565b506040805160208082019990995280820194909452606080850193909352805180850390930183526080909301909252805190860120815191909501209093149392505050565b50805461106b906115c7565b5f825580601f1061107a575050565b601f0160209004905f5260205f20908101906110969190611099565b50565b5b808211156110ad575f815560010161109a565b5090565b803561ffff811681146110c2575f5ffd5b919050565b5f5f83601f8401126110d7575f5ffd5b5081356001600160401b038111156110ed575f5ffd5b602083019150836020828501011115611104575f5ffd5b9250929050565b5f5f5f5f5f5f60808789031215611120575f5ffd5b611129876110b1565b955060208701356001600160401b03811115611143575f5ffd5b61114f89828a016110c7565b90965094505060408701356001600160401b038116811461116e575f5ffd5b925060608701356001600160401b03811115611188575f5ffd5b61119489828a016110c7565b979a9699509497509295939492505050565b5f602082840312156111b6575f5ffd5b5035919050565b80356001600160a01b03811681146110c2575f5ffd5b5f5f604083850312156111e4575f5ffd5b6111ed836110b1565b91506111fb602084016111bd565b90509250929050565b5f5f60208385031215611215575f5ffd5b82356001600160401b0381111561122a575f5ffd5b611236858286016110c7565b90969095509350505050565b5f60208284031215611252575f5ffd5b610bce826110b1565b5f81518084528060208401602086015e5f602082860101526020601f19601f83011685010191505092915050565b602081525f610bce602083018461125b565b634e487b7160e01b5f52604160045260245ffd5b5f5f6001600160401b038411156112c8576112c861129b565b50604051601f19601f85018116603f011681018181106001600160401b03821117156112f6576112f661129b565b60405283815290508082840185101561130d575f5ffd5b838360208301375f60208583010152509392505050565b5f82601f830112611333575f5ffd5b610bce838335602085016112af565b5f60208284031215611352575f5ffd5b81356001600160401b03811115611367575f5ffd5b61137384828501611324565b949350505050565b5f5f6040838503121561138c575f5ffd5b82356001600160401b038111156113a1575f5ffd5b830161012081860312156113b3575f5ffd5b946020939093013593505050565b5f5f5f5f606085870312156113d4575f5ffd5b6113dd856111bd565b93506020850135925060408501356001600160401b038111156113fe575f5ffd5b61140a878288016110c7565b95989497509550505050565b5f5f5f5f60608587031215611429575f5ffd5b84356001600160401b0381111561143e575f5ffd5b61144a878288016110c7565b90989097506020870135966040013595509350505050565b5f60208284031215611472575f5ffd5b610bce826111bd565b85815260a060208201525f61149360a083018761125b565b604083019590955250911515606083015260809091015292915050565b5f5f5f606084860312156114c2575f5ffd5b6114cb846111bd565b92506020840135915060408401356001600160401b038111156114ec575f5ffd5b8401606081870312156114fd575f5ffd5b809150509250925092565b5f5f60408385031215611519575f5ffd5b50508035926020909101359150565b5f5f5f6040848603121561153a575f5ffd5b611543846110b1565b925060208401356001600160401b0381111561155d575f5ffd5b611569868287016110c7565b9497909650939450505050565b60208152815160208201525f602083015160a0604084015261159b60c084018261125b565b905060408401516060840152606084015115156080840152608084015160a08401528091505092915050565b600181811c908216806115db57607f821691505b6020821081036115f957634e487b7160e01b5f52602260045260245ffd5b50919050565b5f5f835461160c816115c7565b600182168015611623576001811461163857611665565b60ff1983168652811515820286019350611665565b865f5260205f205f5b8381101561165d57815488820152600190910190602001611641565b505081860193505b509195945050505050565b818382375f9101908152919050565b5f5f5f60608486031215611691575f5ffd5b83356001600160401b038111156116a6575f5ffd5b6116b286828701611324565b9660208601359650604090950135949350505050565b5f81546116d4816115c7565b8085526001821680156116ee576001811461170a5761173e565b60ff1983166020870152602082151560051b870101935061173e565b845f5260205f205f5b838110156117355781546020828a010152600182019150602081019050611713565b87016020019450505b50505092915050565b606081525f61175960608301866116c8565b60208301949094525060400152919050565b61ffff8716815260c060208201525f61178760c08301886116c8565b8281036040840152611799818861125b565b6001600160a01b0387811660608601528616608085015283810360a085015290506117c4818561125b565b9998505050505050505050565b5f82518060208501845e5f920191825250919050565b5f5f8335601e198436030181126117fc575f5ffd5b8301803591506001600160401b03821115611815575f5ffd5b602001915036819003821315611104575f5ffd5b5f60608284031215611839575f5ffd5b604051606081016001600160401b038111828210171561185b5761185b61129b565b6040908152833582526020808501359083015290915081908301356001600160401b03811115611889575f5ffd5b8301601f81018513611899575f5ffd5b6118a8858235602084016112af565b6040830152505092915050565b5f602082840312156118c5575f5ffd5b81356001600160401b038111156118da575f5ffd5b61137384828501611829565b5f610a353683611829565b601f82111561193857805f5260205f20601f840160051c810160208510156119165750805b601f840160051c820191505b81811015611935575f8155600101611922565b50505b505050565b6001600160401b038311156119545761195461129b565b6119688361196283546115c7565b836118f1565b5f601f841160018114611999575f85156119825750838201355b5f19600387901b1c1916600186901b178355611935565b5f83815260208120601f198716915b828110156119c857868501358255602094850194600190920191016119a8565b50868210156119e4575f1960f88860031b161c19848701351681555b505060018560011b0183555050505050565b81516001600160401b03811115611a0f57611a0f61129b565b611a2381611a1d84546115c7565b846118f1565b6020601f821160018114611a55575f8315611a3e5750848201515b5f19600385901b1c1916600184901b178455611935565b5f84815260208120601f198516915b82811015611a845787850151825560209485019460019092019101611a64565b5084821015611aa157868401515f19600387901b60f8161c191681555b50505050600190811b01905550565b604081525f611ac2604083018561125b565b90508260208301529392505050565b634e487b7160e01b5f52601160045260245ffd5b80820180821115610a3557610a35611ad1565b81810381811115610a3557610a35611ad1565b634e487b7160e01b5f52603260045260245ffdfea26469706673582212200a6bf30bce8e8171b3c2990b650b8d8810e5f9215264bb16fd99d66f22c2c7e564736f6c634300081c0033a2646970667358221220ea0aef27b982812216bf1411afbf56a0fbb06320361591d8fc13e4f75064e2df64736f6c634300081c0033","linkReferences":{}},"methodIdentifiers":{"deployFRVMValidator(address)":"3db50632","deployValidatorWithSalt(address,uint256)":"8d0cb518","isDeployedModule(address)":"6c8fec33","predictValidatorAddress(address,uint256)":"2ead2421"},"id":2}