{"abi":[{"type":"constructor","inputs":[{"name":"_lzEndpoint","type":"address","internalType":"address"}],"stateMutability":"nonpayable"},{"type":"function","name":"attestations","inputs":[{"name":"","type":"bytes32","internalType":"bytes32"}],"outputs":[{"name":"user","type":"address","internalType":"address"},{"name":"facialHash","type":"bytes32","internalType":"bytes32"},{"name":"username","type":"string","internalType":"string"},{"name":"timestamp","type":"uint256","internalType":"uint256"},{"name":"verified","type":"bool","internalType":"bool"}],"stateMutability":"view"},{"type":"function","name":"getAttestation","inputs":[{"name":"attestationId","type":"bytes32","internalType":"bytes32"}],"outputs":[{"name":"","type":"tuple","internalType":"struct CrossChainAttester.Attestation","components":[{"name":"user","type":"address","internalType":"address"},{"name":"facialHash","type":"bytes32","internalType":"bytes32"},{"name":"username","type":"string","internalType":"string"},{"name":"timestamp","type":"uint256","internalType":"uint256"},{"name":"verified","type":"bool","internalType":"bool"}]}],"stateMutability":"view"},{"type":"function","name":"getUserAttestations","inputs":[{"name":"user","type":"address","internalType":"address"}],"outputs":[{"name":"","type":"bytes32[]","internalType":"bytes32[]"}],"stateMutability":"view"},{"type":"function","name":"lzEndpoint","inputs":[],"outputs":[{"name":"","type":"address","internalType":"contract ILayerZeroEndpoint"}],"stateMutability":"view"},{"type":"function","name":"lzReceive","inputs":[{"name":"_srcChainId","type":"uint16","internalType":"uint16"},{"name":"_srcAddress","type":"bytes","internalType":"bytes"},{"name":"","type":"uint64","internalType":"uint64"},{"name":"_payload","type":"bytes","internalType":"bytes"}],"outputs":[],"stateMutability":"nonpayable"},{"type":"function","name":"setTrustedRemote","inputs":[{"name":"_chainId","type":"uint16","internalType":"uint16"},{"name":"_path","type":"bytes","internalType":"bytes"}],"outputs":[],"stateMutability":"nonpayable"},{"type":"function","name":"trustedRemoteLookup","inputs":[{"name":"","type":"uint16","internalType":"uint16"}],"outputs":[{"name":"","type":"bytes","internalType":"bytes"}],"stateMutability":"view"},{"type":"function","name":"userAttestations","inputs":[{"name":"","type":"address","internalType":"address"},{"name":"","type":"uint256","internalType":"uint256"}],"outputs":[{"name":"","type":"bytes32","internalType":"bytes32"}],"stateMutability":"view"},{"type":"function","name":"verifyAttestation","inputs":[{"name":"attestationId","type":"bytes32","internalType":"bytes32"}],"outputs":[],"stateMutability":"nonpayable"},{"type":"event","name":"AttestationCreated","inputs":[{"name":"attestationId","type":"bytes32","indexed":true,"internalType":"bytes32"},{"name":"user","type":"address","indexed":true,"internalType":"address"},{"name":"srcChain","type":"uint16","indexed":false,"internalType":"uint16"}],"anonymous":false},{"type":"event","name":"AttestationVerified","inputs":[{"name":"attestationId","type":"bytes32","indexed":true,"internalType":"bytes32"},{"name":"user","type":"address","indexed":true,"internalType":"address"}],"anonymous":false}],"bytecode":{"object":"0x60a0604052348015600e575f5ffd5b50604051610f95380380610f95833981016040819052602b91603b565b6001600160a01b03166080526066565b5f60208284031215604a575f5ffd5b81516001600160a01b0381168114605f575f5ffd5b9392505050565b608051610f106100855f395f818161016a01526101c20152610f105ff3fe608060405234801561000f575f5ffd5b506004361061008f575f3560e01c8063940992a311610063578063940992a3146101015780639658e1ef14610125578063a3112a6414610145578063b353aaa714610165578063eb8d72b7146101a4575f5ffd5b80621d35671461009357806308f46957146100a85780631cf2bbc9146100bb5780637533d788146100e1575b5f5ffd5b6100a66100a136600461088d565b6101b7565b005b6100a66100b636600461092b565b6103f6565b6100ce6100c9366004610959565b6104fe565b6040519081526020015b60405180910390f35b6100f46100ef366004610983565b610529565b6040516100d891906109d1565b61011461010f36600461092b565b6105c0565b6040516100d89594939291906109e3565b610138610133366004610a22565b610685565b6040516100d89190610a3d565b61015861015336600461092b565b6106ee565b6040516100d89190610a7f565b61018c7f000000000000000000000000000000000000000000000000000000000000000081565b6040516001600160a01b0390911681526020016100d8565b6100a66101b2366004610ad8565b61080f565b336001600160a01b037f0000000000000000000000000000000000000000000000000000000000000000161461022c5760405162461bcd60e51b8152602060048201526015602482015274155b985d5d1a1bdc9a5e995908195b991c1bda5b9d605a1b60448201526064015b60405180910390fd5b61ffff86165f9081526020819052604090819020905161024c9190610b5f565b60405180910390208585604051610264929190610bd0565b6040518091039020146102ac5760405162461bcd60e51b815260206004820152601060248201526f556e7472757374656420736f7572636560801b6044820152606401610223565b5f80806102bb84860186610bf3565b9250925092505f8383838c426040516020016102db959493929190610cc1565b60408051808303601f19018152828252805160209182012060a0840183526001600160a01b0388811685528285018881528585018881524260608801525f6080880181905284815260019586905295909520865181546001600160a01b0319169316929092178255519281019290925591519193509060028201906103609082610d65565b50606082015160038201556080909101516004909101805460ff19169115159190911790556001600160a01b0384165f818152600260209081526040808320805460018101825590845292829020909201849055905161ffff8d16815283917f0beb8a1b8ac002da7f8838a15a69354e34e03df33bfc489d12edaf93bcbf99fc910160405180910390a350505050505050505050565b5f818152600160205260409020546001600160a01b03166104515760405162461bcd60e51b8152602060048201526015602482015274105d1d195cdd185d1a5bdb881b9bdd08199bdd5b99605a1b6044820152606401610223565b5f8181526001602052604090206004015460ff16156104a55760405162461bcd60e51b815260206004820152601060248201526f105b1c9958591e481d995c9a599a595960821b6044820152606401610223565b5f81815260016020819052604080832060048101805460ff1916909317909255905490516001600160a01b039091169183917fe8f6f3e7cded218dea45aee4b379dc5a2b0c31cab04dc0501594054a866e37ba9190a350565b6002602052815f5260405f208181548110610517575f80fd5b905f5260205f20015f91509150505481565b5f602081905290815260409020805461054190610b27565b80601f016020809104026020016040519081016040528092919081815260200182805461056d90610b27565b80156105b85780601f1061058f576101008083540402835291602001916105b8565b820191905f5260205f20905b81548152906001019060200180831161059b57829003601f168201915b505050505081565b600160208190525f91825260409091208054918101546002820180546001600160a01b03909416939192916105f490610b27565b80601f016020809104026020016040519081016040528092919081815260200182805461062090610b27565b801561066b5780601f106106425761010080835404028352916020019161066b565b820191905f5260205f20905b81548152906001019060200180831161064e57829003601f168201915b50505050600383015460049093015491929160ff16905085565b6001600160a01b0381165f908152600260209081526040918290208054835181840281018401909452808452606093928301828280156106e257602002820191905f5260205f20905b8154815260200190600101908083116106ce575b50505050509050919050565b6107276040518060a001604052805f6001600160a01b031681526020015f8152602001606081526020015f81526020015f151581525090565b5f82815260016020818152604092839020835160a08101855281546001600160a01b031681529281015491830191909152600281018054929391929184019161076f90610b27565b80601f016020809104026020016040519081016040528092919081815260200182805461079b90610b27565b80156107e65780601f106107bd576101008083540402835291602001916107e6565b820191905f5260205f20905b8154815290600101906020018083116107c957829003601f168201915b50505091835250506003820154602082015260049091015460ff16151560409091015292915050565b61ffff83165f90815260208190526040902061082c828483610e20565b50505050565b803561ffff81168114610843575f5ffd5b919050565b5f5f83601f840112610858575f5ffd5b50813567ffffffffffffffff81111561086f575f5ffd5b602083019150836020828501011115610886575f5ffd5b9250929050565b5f5f5f5f5f5f608087890312156108a2575f5ffd5b6108ab87610832565b9550602087013567ffffffffffffffff8111156108c6575f5ffd5b6108d289828a01610848565b909650945050604087013567ffffffffffffffff811681146108f2575f5ffd5b9250606087013567ffffffffffffffff81111561090d575f5ffd5b61091989828a01610848565b979a9699509497509295939492505050565b5f6020828403121561093b575f5ffd5b5035919050565b6001600160a01b0381168114610956575f5ffd5b50565b5f5f6040838503121561096a575f5ffd5b823561097581610942565b946020939093013593505050565b5f60208284031215610993575f5ffd5b61099c82610832565b9392505050565b5f81518084528060208401602086015e5f602082860101526020601f19601f83011685010191505092915050565b602081525f61099c60208301846109a3565b60018060a01b038616815284602082015260a060408201525f610a0960a08301866109a3565b6060830194909452509015156080909101529392505050565b5f60208284031215610a32575f5ffd5b813561099c81610942565b602080825282518282018190525f918401906040840190835b81811015610a74578351835260209384019390920191600101610a56565b509095945050505050565b6020815260018060a01b038251166020820152602082015160408201525f604083015160a06060840152610ab660c08401826109a3565b9050606084015160808401526080840151151560a08401528091505092915050565b5f5f5f60408486031215610aea575f5ffd5b610af384610832565b9250602084013567ffffffffffffffff811115610b0e575f5ffd5b610b1a86828701610848565b9497909650939450505050565b600181811c90821680610b3b57607f821691505b602082108103610b5957634e487b7160e01b5f52602260045260245ffd5b50919050565b5f5f8354610b6c81610b27565b600182168015610b835760018114610b9857610bc5565b60ff1983168652811515820286019350610bc5565b865f5260205f205f5b83811015610bbd57815488820152600190910190602001610ba1565b505081860193505b509195945050505050565b818382375f9101908152919050565b634e487b7160e01b5f52604160045260245ffd5b5f5f5f60608486031215610c05575f5ffd5b8335610c1081610942565b925060208401359150604084013567ffffffffffffffff811115610c32575f5ffd5b8401601f81018613610c42575f5ffd5b803567ffffffffffffffff811115610c5c57610c5c610bdf565b604051601f8201601f19908116603f0116810167ffffffffffffffff81118282101715610c8b57610c8b610bdf565b604052818152828201602001881015610ca2575f5ffd5b816020840160208301375f602083830101528093505050509250925092565b6bffffffffffffffffffffffff198660601b1681528460148201525f84518060208701603485015e60f09490941b6001600160f01b031916603492909401918201939093526036810191909152605601949350505050565b601f821115610d6057805f5260205f20601f840160051c81016020851015610d3e5750805b601f840160051c820191505b81811015610d5d575f8155600101610d4a565b50505b505050565b815167ffffffffffffffff811115610d7f57610d7f610bdf565b610d9381610d8d8454610b27565b84610d19565b6020601f821160018114610dc5575f8315610dae5750848201515b5f19600385901b1c1916600184901b178455610d5d565b5f84815260208120601f198516915b82811015610df45787850151825560209485019460019092019101610dd4565b5084821015610e1157868401515f19600387901b60f8161c191681555b50505050600190811b01905550565b67ffffffffffffffff831115610e3857610e38610bdf565b610e4c83610e468354610b27565b83610d19565b5f601f841160018114610e7d575f8515610e665750838201355b5f19600387901b1c1916600186901b178355610d5d565b5f83815260208120601f198716915b82811015610eac5786850135825560209485019460019092019101610e8c565b5086821015610ec8575f1960f88860031b161c19848701351681555b505060018560011b018355505050505056fea2646970667358221220a832532162a8764b56391df50490318f3cc714076db983339484f36496d91d7b64736f6c634300081c0033","linkReferences":{}},"methodIdentifiers":{"attestations(bytes32)":"940992a3","getAttestation(bytes32)":"a3112a64","getUserAttestations(address)":"9658e1ef","lzEndpoint()":"b353aaa7","lzReceive(uint16,bytes,uint64,bytes)":"001d3567","setTrustedRemote(uint16,bytes)":"eb8d72b7","trustedRemoteLookup(uint16)":"7533d788","userAttestations(address,uint256)":"1cf2bbc9","verifyAttestation(bytes32)":"08f46957"},"id":1}