{"abi":[{"type":"constructor","inputs":[{"name":"_ens","type":"address","internalType":"address"}],"stateMutability":"nonpayable"},{"type":"function","name":"addr","inputs":[{"name":"node","type":"bytes32","internalType":"bytes32"}],"outputs":[{"name":"","type":"address","internalType":"address"}],"stateMutability":"view"},{"type":"function","name":"addresses","inputs":[{"name":"","type":"bytes32","internalType":"bytes32"}],"outputs":[{"name":"","type":"address","internalType":"address"}],"stateMutability":"view"},{"type":"function","name":"ens","inputs":[],"outputs":[{"name":"","type":"address","internalType":"contract IENS"}],"stateMutability":"view"},{"type":"function","name":"getUserUsername","inputs":[{"name":"user","type":"address","internalType":"address"}],"outputs":[{"name":"","type":"string","internalType":"string"}],"stateMutability":"view"},{"type":"function","name":"name","inputs":[{"name":"node","type":"bytes32","internalType":"bytes32"}],"outputs":[{"name":"","type":"string","internalType":"string"}],"stateMutability":"view"},{"type":"function","name":"namehash","inputs":[{"name":"domain","type":"string","internalType":"string"}],"outputs":[{"name":"","type":"bytes32","internalType":"bytes32"}],"stateMutability":"pure"},{"type":"function","name":"names","inputs":[{"name":"","type":"bytes32","internalType":"bytes32"}],"outputs":[{"name":"","type":"string","internalType":"string"}],"stateMutability":"view"},{"type":"function","name":"registerUsername","inputs":[{"name":"username","type":"string","internalType":"string"},{"name":"user","type":"address","internalType":"address"}],"outputs":[],"stateMutability":"nonpayable"},{"type":"function","name":"resolveUsername","inputs":[{"name":"username","type":"string","internalType":"string"}],"outputs":[{"name":"","type":"address","internalType":"address"}],"stateMutability":"view"},{"type":"function","name":"setAddr","inputs":[{"name":"node","type":"bytes32","internalType":"bytes32"},{"name":"newAddr","type":"address","internalType":"address"}],"outputs":[],"stateMutability":"nonpayable"},{"type":"function","name":"setName","inputs":[{"name":"node","type":"bytes32","internalType":"bytes32"},{"name":"newName","type":"string","internalType":"string"}],"outputs":[],"stateMutability":"nonpayable"},{"type":"function","name":"usernameToAddress","inputs":[{"name":"","type":"string","internalType":"string"}],"outputs":[{"name":"","type":"address","internalType":"address"}],"stateMutability":"view"},{"type":"function","name":"usernames","inputs":[{"name":"","type":"address","internalType":"address"}],"outputs":[{"name":"","type":"string","internalType":"string"}],"stateMutability":"view"},{"type":"event","name":"AddressChanged","inputs":[{"name":"node","type":"bytes32","indexed":true,"internalType":"bytes32"},{"name":"addr","type":"address","indexed":false,"internalType":"address"}],"anonymous":false},{"type":"event","name":"NameChanged","inputs":[{"name":"node","type":"bytes32","indexed":true,"internalType":"bytes32"},{"name":"name","type":"string","indexed":false,"internalType":"string"}],"anonymous":false},{"type":"event","name":"UsernameRegistered","inputs":[{"name":"user","type":"address","indexed":true,"internalType":"address"},{"name":"username","type":"string","indexed":false,"internalType":"string"}],"anonymous":false}],"bytecode":{"object":"0x60a0604052348015600e575f5ffd5b5060405161105a38038061105a833981016040819052602b91603b565b6001600160a01b03166080526066565b5f60208284031215604a575f5ffd5b81516001600160a01b0381168114605f575f5ffd5b9392505050565b608051610fce61008c5f395f818161016d0152818161062c015261090b0152610fce5ff3fe608060405234801561000f575f5ffd5b50600436106100cb575f3560e01c8063699f200f116100885780638ec6677d116100635780638ec6677d146101f2578063d5fa2b0014610205578063ee91877c14610218578063f825f1431461022b575f5ffd5b8063699f200f146101a257806377372213146101ca5780637d1febd4146101df575f5ffd5b806309879962146100cf57806320c38e2b146100f557806326dec45e146101155780633b3b57de146101285780633f15457f14610168578063691f34311461018f575b5f5ffd5b6100e26100dd366004610adc565b61025f565b6040519081526020015b60405180910390f35b610108610103366004610b16565b6104b8565b6040516100ec9190610b2d565b610108610123366004610b79565b61054f565b610150610136366004610b16565b5f908152602081905260409020546001600160a01b031690565b6040516001600160a01b0390911681526020016100ec565b6101507f000000000000000000000000000000000000000000000000000000000000000081565b61010861019d366004610b16565b6105f8565b6101506101b0366004610b16565b5f602081905290815260409020546001600160a01b031681565b6101dd6101d8366004610b9b565b610614565b005b6101506101ed366004610c24565b610746565b6101dd610200366004610c63565b61077b565b6101dd610213366004610cb6565b6108f3565b610108610226366004610b79565b610a25565b610150610239366004610adc565b80516020818301810180516003825292820191909301209152546001600160a01b031681565b80515f90819081036102715792915050565b825183906060905f905b80156103bc578361028d600183610cf8565b8151811061029d5761029d610d0b565b01602001516001600160f81b031916601760f91b036103aa5760016102c28383610cf8565b6102cc9190610cf8565b67ffffffffffffffff8111156102e4576102e4610a3d565b6040519080825280601f01601f19166020018201604052801561030e576020820181803683370190505b5092505f5b835181101561037257846103278285610d1f565b8151811061033757610337610d0b565b602001015160f81c60f81b84828151811061035457610354610d0b565b60200101906001600160f81b03191690815f1a905350600101610313565b508251602080850191909120604080519283018890528201526060016040516020818303038152906040528051906020012094508091505b806103b481610d32565b91505061027b565b5082518110156104ae578083516103d39190610cf8565b67ffffffffffffffff8111156103eb576103eb610a3d565b6040519080825280601f01601f191660200182016040528015610415576020820181803683370190505b5091505f5b8251811015610479578361042e8284610d1f565b8151811061043e5761043e610d0b565b602001015160f81c60f81b83828151811061045b5761045b610d0b565b60200101906001600160f81b03191690815f1a90535060010161041a565b508151602080840191909120604080519283018790528201526060016040516020818303038152906040528051906020012093505b5091949350505050565b60016020525f9081526040902080546104d090610d47565b80601f01602080910402602001604051908101604052809291908181526020018280546104fc90610d47565b80156105475780601f1061051e57610100808354040283529160200191610547565b820191905f5260205f20905b81548152906001019060200180831161052a57829003601f168201915b505050505081565b6001600160a01b0381165f90815260026020526040902080546060919061057590610d47565b80601f01602080910402602001604051908101604052809291908181526020018280546105a190610d47565b80156105ec5780601f106105c3576101008083540402835291602001916105ec565b820191905f5260205f20905b8154815290600101906020018083116105cf57829003601f168201915b50505050509050919050565b5f81815260016020526040902080546060919061057590610d47565b604051630178b8bf60e01b81526004810183905282907f00000000000000000000000000000000000000000000000000000000000000006001600160a01b031690630178b8bf90602401602060405180830381865afa158015610679573d5f5f3e3d5ffd5b505050506040513d601f19601f8201168201806040525081019061069d9190610d7f565b6001600160a01b0316336001600160a01b0316146106f15760405162461bcd60e51b815260206004820152600c60248201526b155b985d5d1a1bdc9a5e995960a21b60448201526064015b60405180910390fd5b5f8381526001602052604090206107088382610de6565b50827fb7d29e911041e8d9b843369e890bcb72c9388692ba48b65ac54e7214c4c348f7836040516107399190610b2d565b60405180910390a2505050565b5f60038383604051610759929190610ea1565b908152604051908190036020019020546001600160a01b031690505b92915050565b5f6001600160a01b031660038484604051610797929190610ea1565b908152604051908190036020019020546001600160a01b0316146107ee5760405162461bcd60e51b815260206004820152600e60248201526d2ab9b2b93730b6b2903a30b5b2b760911b60448201526064016106e8565b6001600160a01b0381165f908152600260205260409020805461081090610d47565b15905061085f5760405162461bcd60e51b815260206004820152601960248201527f5573657220616c72656164792068617320757365726e616d650000000000000060448201526064016106e8565b6001600160a01b0381165f908152600260205260409020610881838583610eb0565b508060038484604051610895929190610ea1565b90815260405190819003602001812080546001600160a01b039384166001600160a01b0319909116179055908216907f4afe13536e3149cddd8c9a8df1580cd5e909fd13c41e7dfead2e38d1141dad5d906107399086908690610f6a565b604051630178b8bf60e01b81526004810183905282907f00000000000000000000000000000000000000000000000000000000000000006001600160a01b031690630178b8bf90602401602060405180830381865afa158015610958573d5f5f3e3d5ffd5b505050506040513d601f19601f8201168201806040525081019061097c9190610d7f565b6001600160a01b0316336001600160a01b0316146109cb5760405162461bcd60e51b815260206004820152600c60248201526b155b985d5d1a1bdc9a5e995960a21b60448201526064016106e8565b5f838152602081815260409182902080546001600160a01b0319166001600160a01b038616908117909155915191825284917fce9745511e6b32283e684acf17f26ee2c5d221bf65c95e61c3d6fcfa446462d09101610739565b60026020525f9081526040902080546104d090610d47565b634e487b7160e01b5f52604160045260245ffd5b5f82601f830112610a60575f5ffd5b813567ffffffffffffffff811115610a7a57610a7a610a3d565b604051601f8201601f19908116603f0116810167ffffffffffffffff81118282101715610aa957610aa9610a3d565b604052818152838201602001851015610ac0575f5ffd5b816020850160208301375f918101602001919091529392505050565b5f60208284031215610aec575f5ffd5b813567ffffffffffffffff811115610b02575f5ffd5b610b0e84828501610a51565b949350505050565b5f60208284031215610b26575f5ffd5b5035919050565b602081525f82518060208401528060208501604085015e5f604082850101526040601f19601f83011684010191505092915050565b6001600160a01b0381168114610b76575f5ffd5b50565b5f60208284031215610b89575f5ffd5b8135610b9481610b62565b9392505050565b5f5f60408385031215610bac575f5ffd5b82359150602083013567ffffffffffffffff811115610bc9575f5ffd5b610bd585828601610a51565b9150509250929050565b5f5f83601f840112610bef575f5ffd5b50813567ffffffffffffffff811115610c06575f5ffd5b602083019150836020828501011115610c1d575f5ffd5b9250929050565b5f5f60208385031215610c35575f5ffd5b823567ffffffffffffffff811115610c4b575f5ffd5b610c5785828601610bdf565b90969095509350505050565b5f5f5f60408486031215610c75575f5ffd5b833567ffffffffffffffff811115610c8b575f5ffd5b610c9786828701610bdf565b9094509250506020840135610cab81610b62565b809150509250925092565b5f5f60408385031215610cc7575f5ffd5b823591506020830135610cd981610b62565b809150509250929050565b634e487b7160e01b5f52601160045260245ffd5b8181038181111561077557610775610ce4565b634e487b7160e01b5f52603260045260245ffd5b8082018082111561077557610775610ce4565b5f81610d4057610d40610ce4565b505f190190565b600181811c90821680610d5b57607f821691505b602082108103610d7957634e487b7160e01b5f52602260045260245ffd5b50919050565b5f60208284031215610d8f575f5ffd5b8151610b9481610b62565b601f821115610de157805f5260205f20601f840160051c81016020851015610dbf5750805b601f840160051c820191505b81811015610dde575f8155600101610dcb565b50505b505050565b815167ffffffffffffffff811115610e0057610e00610a3d565b610e1481610e0e8454610d47565b84610d9a565b6020601f821160018114610e46575f8315610e2f5750848201515b5f19600385901b1c1916600184901b178455610dde565b5f84815260208120601f198516915b82811015610e755787850151825560209485019460019092019101610e55565b5084821015610e9257868401515f19600387901b60f8161c191681555b50505050600190811b01905550565b818382375f9101908152919050565b67ffffffffffffffff831115610ec857610ec8610a3d565b610edc83610ed68354610d47565b83610d9a565b5f601f841160018114610f0d575f8515610ef65750838201355b5f19600387901b1c1916600186901b178355610dde565b5f83815260208120601f198716915b82811015610f3c5786850135825560209485019460019092019101610f1c565b5086821015610f58575f1960f88860031b161c19848701351681555b505060018560011b0183555050505050565b60208152816020820152818360408301375f818301604090810191909152601f909201601f1916010191905056fea2646970667358221220e0c7d49c98cd403cb373e1d5f72f80219dc71252499d77bfd561cad1c1a99cb764736f6c634300081c0033","linkReferences":{}},"methodIdentifiers":{"addr(bytes32)":"3b3b57de","addresses(bytes32)":"699f200f","ens()":"3f15457f","getUserUsername(address)":"26dec45e","name(bytes32)":"691f3431","namehash(string)":"09879962","names(bytes32)":"20c38e2b","registerUsername(string,address)":"8ec6677d","resolveUsername(string)":"7d1febd4","setAddr(bytes32,address)":"d5fa2b00","setName(bytes32,string)":"77372213","usernameToAddress(string)":"f825f143","usernames(address)":"ee91877c"},"id":2}