{"abi":[{"type":"constructor","inputs":[{"name":"_lzEndpoint","type":"address","internalType":"address"}],"stateMutability":"nonpayable"},{"type":"function","name":"assignments","inputs":[{"name":"","type":"bytes32","internalType":"bytes32"}],"outputs":[{"name":"user","type":"address","internalType":"address"},{"name":"username","type":"string","internalType":"string"},{"name":"facialHash","type":"bytes32","internalType":"bytes32"},{"name":"executed","type":"bool","internalType":"bool"},{"name":"timestamp","type":"uint256","internalType":"uint256"}],"stateMutability":"view"},{"type":"function","name":"createAssignment","inputs":[{"name":"user","type":"address","internalType":"address"},{"name":"username","type":"string","internalType":"string"},{"name":"facialHash","type":"bytes32","internalType":"bytes32"},{"name":"targetChains","type":"uint16[]","internalType":"uint16[]"}],"outputs":[{"name":"assignmentId","type":"bytes32","internalType":"bytes32"}],"stateMutability":"payable"},{"type":"function","name":"estimateExecutionFee","inputs":[{"name":"assignmentId","type":"bytes32","internalType":"bytes32"}],"outputs":[{"name":"totalFee","type":"uint256","internalType":"uint256"}],"stateMutability":"view"},{"type":"function","name":"executeAssignment","inputs":[{"name":"assignmentId","type":"bytes32","internalType":"bytes32"}],"outputs":[],"stateMutability":"payable"},{"type":"function","name":"getAssignment","inputs":[{"name":"assignmentId","type":"bytes32","internalType":"bytes32"}],"outputs":[{"name":"","type":"tuple","internalType":"struct CrossChainAssigner.Assignment","components":[{"name":"user","type":"address","internalType":"address"},{"name":"username","type":"string","internalType":"string"},{"name":"facialHash","type":"bytes32","internalType":"bytes32"},{"name":"targetChains","type":"uint16[]","internalType":"uint16[]"},{"name":"executed","type":"bool","internalType":"bool"},{"name":"timestamp","type":"uint256","internalType":"uint256"}]}],"stateMutability":"view"},{"type":"function","name":"getUserAssignments","inputs":[{"name":"user","type":"address","internalType":"address"}],"outputs":[{"name":"","type":"bytes32[]","internalType":"bytes32[]"}],"stateMutability":"view"},{"type":"function","name":"lzEndpoint","inputs":[],"outputs":[{"name":"","type":"address","internalType":"contract ILayerZeroEndpoint"}],"stateMutability":"view"},{"type":"function","name":"setTrustedRemote","inputs":[{"name":"_chainId","type":"uint16","internalType":"uint16"},{"name":"_path","type":"bytes","internalType":"bytes"}],"outputs":[],"stateMutability":"nonpayable"},{"type":"function","name":"trustedRemoteLookup","inputs":[{"name":"","type":"uint16","internalType":"uint16"}],"outputs":[{"name":"","type":"bytes","internalType":"bytes"}],"stateMutability":"view"},{"type":"function","name":"userAssignments","inputs":[{"name":"","type":"address","internalType":"address"},{"name":"","type":"uint256","internalType":"uint256"}],"outputs":[{"name":"","type":"bytes32","internalType":"bytes32"}],"stateMutability":"view"},{"type":"event","name":"AssignmentCreated","inputs":[{"name":"assignmentId","type":"bytes32","indexed":true,"internalType":"bytes32"},{"name":"user","type":"address","indexed":true,"internalType":"address"},{"name":"targetChains","type":"uint16[]","indexed":false,"internalType":"uint16[]"}],"anonymous":false},{"type":"event","name":"AssignmentExecuted","inputs":[{"name":"assignmentId","type":"bytes32","indexed":true,"internalType":"bytes32"},{"name":"chainId","type":"uint16","indexed":false,"internalType":"uint16"}],"anonymous":false}],"bytecode":{"object":"0x60a060405234801561000f575f5ffd5b5060405161157a38038061157a83398101604081905261002e9161003f565b6001600160a01b031660805261006c565b5f6020828403121561004f575f5ffd5b81516001600160a01b0381168114610065575f5ffd5b9392505050565b6080516114e16100995f395f81816101a30152818161034401528181610577015261067001526114e15ff3fe60806040526004361061008f575f3560e01c80638f03f7b7116100575780638f03f7b714610166578063b353aaa714610192578063c1bcc6c7146101dd578063eb47a105146101f0578063eb8d72b71461020f575f5ffd5b806319e1729c146100935780632d5e9ab8146100c85780634401234a146100f55780637533d7881461010a57806382c2901c14610136575b5f5ffd5b34801561009e575f5ffd5b506100b26100ad366004610d1a565b61022e565b6040516100bf9190610d3a565b60405180910390f35b3480156100d3575f5ffd5b506100e76100e2366004610d7c565b610297565b6040519081526020016100bf565b610108610103366004610d7c565b610438565b005b348015610115575f5ffd5b50610129610124366004610da4565b610735565b6040516100bf9190610deb565b348015610141575f5ffd5b50610155610150366004610d7c565b6107cc565b6040516100bf959493929190610dfd565b348015610171575f5ffd5b50610185610180366004610d7c565b610891565b6040516100bf9190610e3d565b34801561019d575f5ffd5b506101c57f000000000000000000000000000000000000000000000000000000000000000081565b6040516001600160a01b0390911681526020016100bf565b6100e76101eb366004610f2d565b610a31565b3480156101fb575f5ffd5b506100e761020a366004610fe7565b610bf7565b34801561021a575f5ffd5b5061010861022936600461100f565b610c22565b6001600160a01b0381165f9081526002602090815260409182902080548351818402810184019094528084526060939283018282801561028b57602002820191905f5260205f20905b815481526020019060010190808311610277575b50505050509050919050565b5f81815260016020526040812080546001600160a01b03166102f75760405162461bcd60e51b8152602060048201526014602482015273105cdcda59db9b595b9d081b9bdd08199bdd5b9960621b60448201526064015b60405180910390fd5b805460028201546040515f92610321926001600160a01b0390911691600186019190602001611115565b60408051601f1981840301815291905290505f5b6003830154811015610430575f7f00000000000000000000000000000000000000000000000000000000000000006001600160a01b03166340a7bb1085600301848154811061038657610386611148565b905f5260205f2090601091828204019190066002029054906101000a900461ffff1630865f60405180602001604052805f8152506040518663ffffffff1660e01b81526004016103da95949392919061115c565b6040805180830381865afa1580156103f4573d5f5f3e3d5ffd5b505050506040513d601f19601f8201168201806040525081019061041891906111af565b50905061042581866111d1565b945050600101610335565b505050919050565b5f81815260016020526040902080546001600160a01b03166104935760405162461bcd60e51b8152602060048201526014602482015273105cdcda59db9b595b9d081b9bdd08199bdd5b9960621b60448201526064016102ee565b600481015460ff16156104db5760405162461bcd60e51b815260206004820152601060248201526f105b1c9958591e48195e1958dd5d195960821b60448201526064016102ee565b805460028201546040515f92610505926001600160a01b0390911691600186019190602001611115565b60408051601f1981840301815291905290505f5b6003830154811015610722575f83600301828154811061053b5761053b611148565b5f91825260208083206010830401546040805192830181528483525163040a7bb160e41b8152600f9093166002026101000a900461ffff1693507f00000000000000000000000000000000000000000000000000000000000000006001600160a01b0316916340a7bb10916105ba91869130918a91889160040161115c565b6040805180830381865afa1580156105d4573d5f5f3e3d5ffd5b505050506040513d601f19601f820116820180604052508101906105f891906111af565b5090508034101561063e5760405162461bcd60e51b815260206004820152601060248201526f496e73756666696369656e742066656560801b60448201526064016102ee565b61ffff82165f9081526020818152604080832081519283018252838352905162c5803160e81b81526001600160a01b037f0000000000000000000000000000000000000000000000000000000000000000169363c58031009386936106b093899391928c9233929091906004016111f6565b5f604051808303818588803b1580156106c7575f5ffd5b505af11580156106d9573d5f5f3e3d5ffd5b505060405161ffff861681528993507f443144b0c2b42ba21b4d065eff88cf57524066357a20165c01236312dd2bdb019250602001905060405180910390a25050600101610519565b5050600401805460ff1916600117905550565b5f602081905290815260409020805461074d9061105e565b80601f01602080910402602001604051908101604052809291908181526020018280546107799061105e565b80156107c45780601f1061079b576101008083540402835291602001916107c4565b820191905f5260205f20905b8154815290600101906020018083116107a757829003601f168201915b505050505081565b600160208190525f9182526040909120805491810180546001600160a01b03909316926107f89061105e565b80601f01602080910402602001604051908101604052809291908181526020018280546108249061105e565b801561086f5780601f106108465761010080835404028352916020019161086f565b820191905f5260205f20905b81548152906001019060200180831161085257829003601f168201915b50505050600283015460048401546005909401549293909260ff909116915085565b6108d16040518060c001604052805f6001600160a01b03168152602001606081526020015f8152602001606081526020015f151581526020015f81525090565b5f82815260016020818152604092839020835160c0810190945280546001600160a01b0316845291820180549184019161090a9061105e565b80601f01602080910402602001604051908101604052809291908181526020018280546109369061105e565b80156109815780601f1061095857610100808354040283529160200191610981565b820191905f5260205f20905b81548152906001019060200180831161096457829003601f168201915b505050505081526020016002820154815260200160038201805480602002602001604051908101604052809291908181526020018280548015610a0857602002820191905f5260205f20905f905b82829054906101000a900461ffff1661ffff16815260200190600201906020826001010492830192600103820291508084116109cf5790505b5050509183525050600482015460ff161515602082015260059091015460409091015292915050565b5f8686868642604051602001610a4b95949392919061125c565b6040516020818303038152906040528051906020012090506040518060c00160405280886001600160a01b0316815260200187878080601f0160208091040260200160405190810160405280939291908181526020018383808284375f9201919091525050509082525060208082018790526040805186830281810184018352878252919093019291879187918291908501908490808284375f920182905250938552505050602080830182905242604093840152848252600180825292909120835181546001600160a01b0319166001600160a01b03909116178155908301519091820190610b3b90826112f1565b506040820151600282015560608201518051610b61916003840191602090910190610c45565b50608082015160048201805460ff191691151591909117905560a0909101516005909101556001600160a01b0387165f818152600260209081526040808320805460018101825590845291909220018390555182907f30a0a7e2974900d27d733e2d8bf0e332ce7146687c50cdd019ab68d5b0a5dfbd90610be590879087906113ac565b60405180910390a39695505050505050565b6002602052815f5260405f208181548110610c10575f80fd5b905f5260205f20015f91509150505481565b61ffff83165f908152602081905260409020610c3f8284836113f1565b50505050565b828054828255905f5260205f2090600f01601090048101928215610cdb579160200282015f5b83821115610cab57835183826101000a81548161ffff021916908361ffff1602179055509260200192600201602081600101049283019260010302610c6b565b8015610cd95782816101000a81549061ffff0219169055600201602081600101049283019260010302610cab565b505b50610ce7929150610ceb565b5090565b5b80821115610ce7575f8155600101610cec565b80356001600160a01b0381168114610d15575f5ffd5b919050565b5f60208284031215610d2a575f5ffd5b610d3382610cff565b9392505050565b602080825282518282018190525f918401906040840190835b81811015610d71578351835260209384019390920191600101610d53565b509095945050505050565b5f60208284031215610d8c575f5ffd5b5035919050565b803561ffff81168114610d15575f5ffd5b5f60208284031215610db4575f5ffd5b610d3382610d93565b5f81518084528060208401602086015e5f602082860101526020601f19601f83011685010191505092915050565b602081525f610d336020830184610dbd565b6001600160a01b038616815260a0602082018190525f90610e2090830187610dbd565b604083019590955250911515606083015260809091015292915050565b602080825282516001600160a01b03168282015282015160c060408301525f90610e6a60e0840182610dbd565b6040850151606085810191909152850151848203601f190160808601528051808352602091820193505f9291909101905b80831015610ec25761ffff8451168252602082019150602084019350600183019250610e9b565b50608086015180151560a0870152925060a086015160c086015280935050505092915050565b5f5f83601f840112610ef8575f5ffd5b50813567ffffffffffffffff811115610f0f575f5ffd5b602083019150836020828501011115610f26575f5ffd5b9250929050565b5f5f5f5f5f5f60808789031215610f42575f5ffd5b610f4b87610cff565b9550602087013567ffffffffffffffff811115610f66575f5ffd5b610f7289828a01610ee8565b90965094505060408701359250606087013567ffffffffffffffff811115610f98575f5ffd5b8701601f81018913610fa8575f5ffd5b803567ffffffffffffffff811115610fbe575f5ffd5b8960208260051b8401011115610fd2575f5ffd5b60208201935080925050509295509295509295565b5f5f60408385031215610ff8575f5ffd5b61100183610cff565b946020939093013593505050565b5f5f5f60408486031215611021575f5ffd5b61102a84610d93565b9250602084013567ffffffffffffffff811115611045575f5ffd5b61105186828701610ee8565b9497909650939450505050565b600181811c9082168061107257607f821691505b60208210810361109057634e487b7160e01b5f52602260045260245ffd5b50919050565b5f81546110a28161105e565b8085526001821680156110bc57600181146110d85761110c565b60ff1983166020870152602082151560051b870101935061110c565b845f5260205f205f5b838110156111035781546020828a0101526001820191506020810190506110e1565b87016020019450505b50505092915050565b6001600160a01b03841681526060602082018190525f9061113890830185611096565b9050826040830152949350505050565b634e487b7160e01b5f52603260045260245ffd5b61ffff861681526001600160a01b038516602082015260a0604082018190525f9061118990830186610dbd565b841515606084015282810360808401526111a38185610dbd565b98975050505050505050565b5f5f604083850312156111c0575f5ffd5b505080516020909101519092909150565b808201808211156111f057634e487b7160e01b5f52601160045260245ffd5b92915050565b61ffff8716815260c060208201525f61121260c0830188611096565b82810360408401526112248188610dbd565b6001600160a01b0387811660608601528616608085015283810360a0850152905061124f8185610dbd565b9998505050505050505050565b6bffffffffffffffffffffffff198660601b168152838560148301376014930192830191909152603482015260540192915050565b634e487b7160e01b5f52604160045260245ffd5b601f8211156112ec57805f5260205f20601f840160051c810160208510156112ca5750805b601f840160051c820191505b818110156112e9575f81556001016112d6565b50505b505050565b815167ffffffffffffffff81111561130b5761130b611291565b61131f81611319845461105e565b846112a5565b6020601f821160018114611351575f831561133a5750848201515b5f19600385901b1c1916600184901b1784556112e9565b5f84815260208120601f198516915b828110156113805787850151825560209485019460019092019101611360565b508482101561139d57868401515f19600387901b60f8161c191681555b50505050600190811b01905550565b602080825281018290525f8360408301825b858110156113e75761ffff6113d284610d93565b168252602092830192909101906001016113be565b5095945050505050565b67ffffffffffffffff83111561140957611409611291565b61141d83611417835461105e565b836112a5565b5f601f84116001811461144e575f85156114375750838201355b5f19600387901b1c1916600186901b1783556112e9565b5f83815260208120601f198716915b8281101561147d578685013582556020948501946001909201910161145d565b5086821015611499575f1960f88860031b161c19848701351681555b505060018560011b018355505050505056fea26469706673582212208fc34f33d893450d8ae7491824c90914339f5f614666202f4d1ef85b8e0e05cf64736f6c634300081c0033","linkReferences":{}},"methodIdentifiers":{"assignments(bytes32)":"82c2901c","createAssignment(address,string,bytes32,uint16[])":"c1bcc6c7","estimateExecutionFee(bytes32)":"2d5e9ab8","executeAssignment(bytes32)":"4401234a","getAssignment(bytes32)":"8f03f7b7","getUserAssignments(address)":"19e1729c","lzEndpoint()":"b353aaa7","setTrustedRemote(uint16,bytes)":"eb8d72b7","trustedRemoteLookup(uint16)":"7533d788","userAssignments(address,uint256)":"eb47a105"},"id":0}