{"abi":[{"type":"constructor","inputs":[{"name":"_frvmValidator","type":"address","internalType":"address"},{"name":"_usernameRegistry","type":"address","internalType":"address"}],"stateMutability":"nonpayable"},{"type":"function","name":"cancelPaymentRequest","inputs":[{"name":"requestId","type":"bytes32","internalType":"bytes32"}],"outputs":[],"stateMutability":"nonpayable"},{"type":"function","name":"createPaymentRequest","inputs":[{"name":"customerUsername","type":"string","internalType":"string"},{"name":"amount","type":"uint256","internalType":"uint256"},{"name":"token","type":"address","internalType":"address"},{"name":"expiryDuration","type":"uint256","internalType":"uint256"}],"outputs":[{"name":"requestId","type":"bytes32","internalType":"bytes32"}],"stateMutability":"nonpayable"},{"type":"function","name":"frvmValidator","inputs":[],"outputs":[{"name":"","type":"address","internalType":"contract IFaceRecognitionValidator"}],"stateMutability":"view"},{"type":"function","name":"getMerchantProfile","inputs":[{"name":"merchant","type":"address","internalType":"address"}],"outputs":[{"name":"","type":"tuple","internalType":"struct MerchantAccount.MerchantProfile","components":[{"name":"name","type":"string","internalType":"string"},{"name":"owner","type":"address","internalType":"address"},{"name":"isActive","type":"bool","internalType":"bool"},{"name":"registrationTimestamp","type":"uint256","internalType":"uint256"}]}],"stateMutability":"view"},{"type":"function","name":"getMerchantRequests","inputs":[{"name":"merchant","type":"address","internalType":"address"}],"outputs":[{"name":"","type":"bytes32[]","internalType":"bytes32[]"}],"stateMutability":"view"},{"type":"function","name":"getPaymentRequest","inputs":[{"name":"requestId","type":"bytes32","internalType":"bytes32"}],"outputs":[{"name":"","type":"tuple","internalType":"struct MerchantAccount.PaymentRequest","components":[{"name":"requestId","type":"bytes32","internalType":"bytes32"},{"name":"merchant","type":"address","internalType":"address"},{"name":"customerUsername","type":"string","internalType":"string"},{"name":"amount","type":"uint256","internalType":"uint256"},{"name":"token","type":"address","internalType":"address"},{"name":"isPaid","type":"bool","internalType":"bool"},{"name":"isCancelled","type":"bool","internalType":"bool"},{"name":"timestamp","type":"uint256","internalType":"uint256"},{"name":"expiryTimestamp","type":"uint256","internalType":"uint256"}]}],"stateMutability":"view"},{"type":"function","name":"merchantBalances","inputs":[{"name":"","type":"address","internalType":"address"}],"outputs":[{"name":"","type":"uint256","internalType":"uint256"}],"stateMutability":"view"},{"type":"function","name":"merchantRequests","inputs":[{"name":"","type":"address","internalType":"address"},{"name":"","type":"uint256","internalType":"uint256"}],"outputs":[{"name":"","type":"bytes32","internalType":"bytes32"}],"stateMutability":"view"},{"type":"function","name":"merchants","inputs":[{"name":"","type":"address","internalType":"address"}],"outputs":[{"name":"name","type":"string","internalType":"string"},{"name":"owner","type":"address","internalType":"address"},{"name":"isActive","type":"bool","internalType":"bool"},{"name":"registrationTimestamp","type":"uint256","internalType":"uint256"}],"stateMutability":"view"},{"type":"function","name":"paymentRequests","inputs":[{"name":"","type":"bytes32","internalType":"bytes32"}],"outputs":[{"name":"requestId","type":"bytes32","internalType":"bytes32"},{"name":"merchant","type":"address","internalType":"address"},{"name":"customerUsername","type":"string","internalType":"string"},{"name":"amount","type":"uint256","internalType":"uint256"},{"name":"token","type":"address","internalType":"address"},{"name":"isPaid","type":"bool","internalType":"bool"},{"name":"isCancelled","type":"bool","internalType":"bool"},{"name":"timestamp","type":"uint256","internalType":"uint256"},{"name":"expiryTimestamp","type":"uint256","internalType":"uint256"}],"stateMutability":"view"},{"type":"function","name":"processPayment","inputs":[{"name":"requestId","type":"bytes32","internalType":"bytes32"},{"name":"facialSig","type":"tuple","internalType":"struct IFaceRecognitionValidator.FacialSignature","components":[{"name":"facialHash","type":"bytes32","internalType":"bytes32"},{"name":"timestamp","type":"uint256","internalType":"uint256"},{"name":"signature","type":"bytes","internalType":"bytes"}]}],"outputs":[],"stateMutability":"payable"},{"type":"function","name":"registerMerchant","inputs":[{"name":"name","type":"string","internalType":"string"}],"outputs":[],"stateMutability":"nonpayable"},{"type":"function","name":"usernameRegistry","inputs":[],"outputs":[{"name":"","type":"address","internalType":"contract UsernameRegistry"}],"stateMutability":"view"},{"type":"function","name":"withdrawFunds","inputs":[{"name":"amount","type":"uint256","internalType":"uint256"}],"outputs":[],"stateMutability":"nonpayable"},{"type":"event","name":"FundsWithdrawn","inputs":[{"name":"merchant","type":"address","indexed":true,"internalType":"address"},{"name":"amount","type":"uint256","indexed":false,"internalType":"uint256"}],"anonymous":false},{"type":"event","name":"MerchantRegistered","inputs":[{"name":"merchant","type":"address","indexed":true,"internalType":"address"},{"name":"name","type":"string","indexed":false,"internalType":"string"}],"anonymous":false},{"type":"event","name":"PaymentCancelled","inputs":[{"name":"requestId","type":"bytes32","indexed":true,"internalType":"bytes32"},{"name":"merchant","type":"address","indexed":true,"internalType":"address"}],"anonymous":false},{"type":"event","name":"PaymentCompleted","inputs":[{"name":"requestId","type":"bytes32","indexed":true,"internalType":"bytes32"},{"name":"customer","type":"address","indexed":true,"internalType":"address"},{"name":"amount","type":"uint256","indexed":false,"internalType":"uint256"}],"anonymous":false},{"type":"event","name":"PaymentRequestCreated","inputs":[{"name":"requestId","type":"bytes32","indexed":true,"internalType":"bytes32"},{"name":"merchant","type":"address","indexed":true,"internalType":"address"},{"name":"customerUsername","type":"string","indexed":false,"internalType":"string"},{"name":"amount","type":"uint256","indexed":false,"internalType":"uint256"}],"anonymous":false},{"type":"error","name":"InsufficientBalance","inputs":[]},{"type":"error","name":"InvalidFacialSignature","inputs":[]},{"type":"error","name":"MerchantNotRegistered","inputs":[]},{"type":"error","name":"PaymentAlreadyCompleted","inputs":[]},{"type":"error","name":"PaymentExpired","inputs":[]},{"type":"error","name":"PaymentRequestNotFound","inputs":[]},{"type":"error","name":"Unauthorized","inputs":[]}],"bytecode":{"object":"0x60c060405234801561000f575f5ffd5b50604051611b02380380611b0283398101604081905261002e91610060565b6001600160a01b039182166080521660a052610091565b80516001600160a01b038116811461005b575f5ffd5b919050565b5f5f60408385031215610071575f5ffd5b61007a83610045565b915061008860208401610045565b90509250929050565b60805160a051611a3b6100c75f395f81816102e3015281816108690152610c8d01525f81816101a5015261098b0152611a3b5ff3fe6080604052600436106100d9575f3560e01c80637f3f16011161007c578063aaa2b53411610057578063aaa2b53414610294578063ad5d5b7c146102b3578063c57f6c38146102d2578063ee14e93914610305575f5ffd5b80637f3f16011461021e5780639bb3bfde14610249578063a8ed42aa14610268575f5ffd5b8063256fb2d1116100b7578063256fb2d1146101685780632c2e14cf146101945780634574b361146101df5780634b8f39cb1461020b575f5ffd5b80630d7a55ba146100dd578063155dd5ee1461011a57806318ec13981461013b575b5f5ffd5b3480156100e8575f5ffd5b506100fc6100f73660046112c1565b610334565b60405161011199989796959493929190611306565b60405180910390f35b348015610125575f5ffd5b506101396101343660046112c1565b610420565b005b348015610146575f5ffd5b5061015a610155366004611384565b61050e565b604051908152602001610111565b348015610173575f5ffd5b506101876101823660046113ae565b610539565b60405161011191906113d0565b34801561019f575f5ffd5b506101c77f000000000000000000000000000000000000000000000000000000000000000081565b6040516001600160a01b039091168152602001610111565b3480156101ea575f5ffd5b506101fe6101f93660046112c1565b610643565b604051610111919061141f565b6101396102193660046114c5565b6107c4565b348015610229575f5ffd5b5061015a6102383660046113ae565b60036020525f908152604090205481565b348015610254575f5ffd5b5061015a610263366004611554565b610c3b565b348015610273575f5ffd5b506102876102823660046113ae565b610f31565b60405161011191906115b6565b34801561029f575f5ffd5b506101396102ae3660046112c1565b610f9a565b3480156102be575f5ffd5b506101396102cd3660046115f8565b6110af565b3480156102dd575f5ffd5b506101c77f000000000000000000000000000000000000000000000000000000000000000081565b348015610310575f5ffd5b5061032461031f3660046113ae565b611204565b6040516101119493929190611637565b600160208190525f91825260409091208054918101546002820180546001600160a01b0390921692916103669061166e565b80601f01602080910402602001604051908101604052809291908181526020018280546103929061166e565b80156103dd5780601f106103b4576101008083540402835291602001916103dd565b820191905f5260205f20905b8154815290600101906020018083116103c057829003601f168201915b50505050600383015460048401546005850154600690950154939491936001600160a01b038216935060ff600160a01b8304811693600160a81b90930416919089565b335f90815260208190526040902060010154600160a01b900460ff1661045957604051635357bf5f60e11b815260040160405180910390fd5b335f9081526003602052604090205481111561048857604051631e9acf1760e31b815260040160405180910390fd5b335f90815260036020526040812080548392906104a69084906116ba565b9091555050604051339082156108fc029083905f818181858888f193505050501580156104d5573d5f5f3e3d5ffd5b5060405181815233907feaff4b37086828766ad3268786972c0cd24259d4c87a80f9d3963a3c3d999b0d9060200160405180910390a250565b6002602052815f5260405f208181548110610527575f80fd5b905f5260205f20015f91509150505481565b6040805160808101825260608082525f602083018190529282018390528101919091526001600160a01b0382165f908152602081905260409081902081516080810190925280548290829061058d9061166e565b80601f01602080910402602001604051908101604052809291908181526020018280546105b99061166e565b80156106045780601f106105db57610100808354040283529160200191610604565b820191905f5260205f20905b8154815290600101906020018083116105e757829003601f168201915b505050918352505060018201546001600160a01b0381166020830152600160a01b900460ff161515604082015260029091015460609091015292915050565b6106a06040518061012001604052805f81526020015f6001600160a01b03168152602001606081526020015f81526020015f6001600160a01b031681526020015f151581526020015f151581526020015f81526020015f81525090565b5f8281526001602081815260409283902083516101208101855281548152928101546001600160a01b03169183019190915260028101805492939192918401916106e99061166e565b80601f01602080910402602001604051908101604052809291908181526020018280546107159061166e565b80156107605780601f1061073757610100808354040283529160200191610760565b820191905f5260205f20905b81548152906001019060200180831161074357829003601f168201915b50505091835250506003820154602082015260048201546001600160a01b038116604083015260ff600160a01b8204811615156060840152600160a81b9091041615156080820152600582015460a082015260069091015460c09091015292915050565b5f828152600160208190526040909120908101546001600160a01b03166107fe5760405163511b84f160e11b815260040160405180910390fd5b6004810154600160a01b900460ff161561082b5760405163268f9f4760e21b815260040160405180910390fd5b806006015442111561085057604051630664b28b60e41b815260040160405180910390fd5b604051631f47faf560e21b81525f906001600160a01b037f00000000000000000000000000000000000000000000000000000000000000001690637d1febd4906108a19060028601906004016116d3565b602060405180830381865afa1580156108bc573d5f5f3e3d5ffd5b505050506040513d601f19601f820116820180604052508101906108e0919061175a565b90506001600160a01b03811633146109375760405162461bcd60e51b81526020600482015260156024820152742ab730baba3437b934bd32b21031bab9ba37b6b2b960591b60448201526064015b60405180910390fd5b600382015460048301546040805160208101889052908101929092526bffffffffffffffffffffffff19606091821b16908201525f906074016040516020818303038152906040528051906020012090505f7f00000000000000000000000000000000000000000000000000000000000000006001600160a01b031663e2680a6b8484886040518463ffffffff1660e01b81526004016109d99392919061179d565b602060405180830381865afa1580156109f4573d5f5f3e3d5ffd5b505050506040513d601f19601f82011682018060405250810190610a18919061182e565b905080610a3857604051631abadf9d60e01b815260040160405180910390fd5b60048401546001600160a01b0316610b1a578360030154341015610a955760405162461bcd60e51b8152602060048201526014602482015273125b9cdd59999a58da595b9d081c185e5b595b9d60621b604482015260640161092e565b60038085015460018601546001600160a01b03165f90815260209290925260408220805491929091610ac890849061184d565b90915550506003840154341115610b1557600384015433906108fc90610aee90346116ba565b6040518115909202915f818181858888f19350505050158015610b13573d5f5f3e3d5ffd5b505b610bd2565b60048481015460038601546040516323b872dd60e01b8152339381019390935230602484015260448301526001600160a01b0316906323b872dd906064016020604051808303815f875af1158015610b74573d5f5f3e3d5ffd5b505050506040513d601f19601f82011682018060405250810190610b98919061182e565b5060038085015460018601546001600160a01b03165f90815260209290925260408220805491929091610bcc90849061184d565b90915550505b60048401805460ff60a01b1916600160a01b17905560038401546040516001600160a01b0385169188917fa7b31f0f3731da4b3c94c7d84acb277ee788cda12f626e14c6baa74670dc5a0791610c2b9190815260200190565b60405180910390a3505050505050565b335f90815260208190526040812060010154600160a01b900460ff16610c7457604051635357bf5f60e11b815260040160405180910390fd5b604051631f47faf560e21b81525f906001600160a01b037f00000000000000000000000000000000000000000000000000000000000000001690637d1febd490610cc4908a908a90600401611860565b602060405180830381865afa158015610cdf573d5f5f3e3d5ffd5b505050506040513d601f19601f82011682018060405250810190610d03919061175a565b90506001600160a01b038116610d505760405162461bcd60e51b815260206004820152601260248201527110dd5cdd1bdb595c881b9bdd08199bdd5b9960721b604482015260640161092e565b338787878742604051602001610d6b9695949392919061187b565b60408051601f1981840301815282825280516020918201206101208401835280845233848301528251601f8b0183900483028101830184528a815290955091830191908a908a90819084018382808284375f920182905250938552505050602082018890526001600160a01b03871660408301526060820181905260808201524260a0820181905260c090910190610e0490869061184d565b90525f83815260016020818152604092839020845181559084015191810180546001600160a01b0319166001600160a01b0390931692909217909155908201516002820190610e539082611927565b5060608201516003820155608082015160048201805460a085015160c08601511515600160a81b0260ff60a81b19911515600160a01b026001600160a81b03199093166001600160a01b0390951694909417919091171691909117905560e0820151600582015561010090910151600690910155335f818152600260209081526040808320805460018101825590845291909220018490555183907f9672027edc6bd2f7616435211461bc52fc3f33f11fc61e1aa3627a86e5b7ede490610f1f908b908b908b906119e2565b60405180910390a35095945050505050565b6001600160a01b0381165f90815260026020908152604091829020805483518184028101840190945280845260609392830182828015610f8e57602002820191905f5260205f20905b815481526020019060010190808311610f7a575b50505050509050919050565b5f818152600160208190526040909120908101546001600160a01b0316610fd45760405163511b84f160e11b815260040160405180910390fd5b6004810154600160a01b900460ff16156110015760405163268f9f4760e21b815260040160405180910390fd5b60018101546001600160a01b031633148061101f5750806006015442115b61105b5760405162461bcd60e51b815260206004820152600d60248201526c10d85b9b9bdd0818d85b98d95b609a1b604482015260640161092e565b60048101805460ff60a81b1916600160a81b17905560018101546040516001600160a01b039091169083907f82afa048a7369739bfa90f12412a1226ef35206d456ca86d08450d82fc60f55a905f90a35050565b335f90815260208190526040902060010154600160a01b900460ff161561110d5760405162461bcd60e51b8152602060048201526012602482015271105b1c9958591e481c9959da5cdd195c995960721b604482015260640161092e565b604051806080016040528083838080601f0160208091040260200160405190810160405280939291908181526020018383808284375f92018290525093855250503360208085018290526001604080870191909152426060909601959095529083528290525020815181906111829082611927565b5060208201516001820180546040808601511515600160a01b026001600160a81b03199092166001600160a01b03909416939093171790556060909201516002909101555133907fec31b5c87ea82f60c8bc1dd8262f275183d0d7bc8c37cdbbfd74130441818fbc906111f89085908590611860565b60405180910390a25050565b5f6020819052908152604090208054819061121e9061166e565b80601f016020809104026020016040519081016040528092919081815260200182805461124a9061166e565b80156112955780601f1061126c57610100808354040283529160200191611295565b820191905f5260205f20905b81548152906001019060200180831161127857829003601f168201915b50505050600183015460029093015491926001600160a01b03811692600160a01b90910460ff16915084565b5f602082840312156112d1575f5ffd5b5035919050565b5f81518084528060208401602086015e5f602082860101526020601f19601f83011685010191505092915050565b8981526001600160a01b0389166020820152610120604082018190525f906113309083018a6112d8565b6060830198909852506001600160a01b0395909516608086015292151560a085015290151560c084015260e0830152610100909101529392505050565b6001600160a01b0381168114611381575f5ffd5b50565b5f5f60408385031215611395575f5ffd5b82356113a08161136d565b946020939093013593505050565b5f602082840312156113be575f5ffd5b81356113c98161136d565b9392505050565b602081525f8251608060208401526113eb60a08401826112d8565b905060018060a01b036020850151166040840152604084015115156060840152606084015160808401528091505092915050565b60208152815160208201525f602083015161144560408401826001600160a01b03169052565b50604083015161012060608401526114616101408401826112d8565b905060608401516080840152608084015161148760a08501826001600160a01b03169052565b5060a084015180151560c08501525060c084015180151560e08501525060e08401516101008401526101008401516101208401528091505092915050565b5f5f604083850312156114d6575f5ffd5b82359150602083013567ffffffffffffffff8111156114f3575f5ffd5b830160608186031215611504575f5ffd5b809150509250929050565b5f5f83601f84011261151f575f5ffd5b50813567ffffffffffffffff811115611536575f5ffd5b60208301915083602082850101111561154d575f5ffd5b9250929050565b5f5f5f5f5f60808688031215611568575f5ffd5b853567ffffffffffffffff81111561157e575f5ffd5b61158a8882890161150f565b9096509450506020860135925060408601356115a58161136d565b949793965091946060013592915050565b602080825282518282018190525f918401906040840190835b818110156115ed5783518352602093840193909201916001016115cf565b509095945050505050565b5f5f60208385031215611609575f5ffd5b823567ffffffffffffffff81111561161f575f5ffd5b61162b8582860161150f565b90969095509350505050565b608081525f61164960808301876112d8565b6001600160a01b03959095166020830152509115156040830152606090910152919050565b600181811c9082168061168257607f821691505b6020821081036116a057634e487b7160e01b5f52602260045260245ffd5b50919050565b634e487b7160e01b5f52601160045260245ffd5b818103818111156116cd576116cd6116a6565b92915050565b602081525f5f83546116e48161166e565b806020860152600182165f8114611702576001811461171e5761174f565b60ff1983166040870152604082151560051b870101935061174f565b865f5260205f205f5b8381101561174657815488820160400152600190910190602001611727565b87016040019450505b509195945050505050565b5f6020828403121561176a575f5ffd5b81516113c98161136d565b81835281816020850137505f828201602090810191909152601f909101601f19169091010190565b6001600160a01b03841681526020808201849052606060408084018290528435918401919091529083013560808301525f9083013536849003601e190181126117e4575f5ffd5b830160208101903567ffffffffffffffff811115611800575f5ffd5b80360382131561180e575f5ffd5b606060a085015261182360c085018284611775565b979650505050505050565b5f6020828403121561183e575f5ffd5b815180151581146113c9575f5ffd5b808201808211156116cd576116cd6116a6565b602081525f611873602083018486611775565b949350505050565b6bffffffffffffffffffffffff198760601b16815284866014830137601494019384019290925260601b6bffffffffffffffffffffffff19166034830152604882015260680192915050565b634e487b7160e01b5f52604160045260245ffd5b601f82111561192257805f5260205f20601f840160051c810160208510156119005750805b601f840160051c820191505b8181101561191f575f815560010161190c565b50505b505050565b815167ffffffffffffffff811115611941576119416118c7565b6119558161194f845461166e565b846118db565b6020601f821160018114611987575f83156119705750848201515b5f19600385901b1c1916600184901b17845561191f565b5f84815260208120601f198516915b828110156119b65787850151825560209485019460019092019101611996565b50848210156119d357868401515f19600387901b60f8161c191681555b50505050600190811b01905550565b604081525f6119f5604083018587611775565b905082602083015294935050505056fea26469706673582212209eb8531bd85e35ce9c7cf7a44b3df1962cd7895a1d29bc8e145e03a98876699f64736f6c634300081c0033","linkReferences":{}},"methodIdentifiers":{"cancelPaymentRequest(bytes32)":"aaa2b534","createPaymentRequest(string,uint256,address,uint256)":"9bb3bfde","frvmValidator()":"2c2e14cf","getMerchantProfile(address)":"256fb2d1","getMerchantRequests(address)":"a8ed42aa","getPaymentRequest(bytes32)":"4574b361","merchantBalances(address)":"7f3f1601","merchantRequests(address,uint256)":"18ec1398","merchants(address)":"ee14e939","paymentRequests(bytes32)":"0d7a55ba","processPayment(bytes32,(bytes32,uint256,bytes))":"4b8f39cb","registerMerchant(string)":"ad5d5b7c","usernameRegistry()":"c57f6c38","withdrawFunds(uint256)":"155dd5ee"},"id":9}