{"abi":[{"type":"constructor","inputs":[{"name":"_frvmValidator","type":"address","internalType":"address"},{"name":"_usernameRegistry","type":"address","internalType":"address"},{"name":"_merchantAccount","type":"address","internalType":"address"}],"stateMutability":"nonpayable"},{"type":"function","name":"cancelCheckout","inputs":[{"name":"sessionId","type":"bytes32","internalType":"bytes32"}],"outputs":[],"stateMutability":"nonpayable"},{"type":"function","name":"checkoutSessions","inputs":[{"name":"","type":"bytes32","internalType":"bytes32"}],"outputs":[{"name":"sessionId","type":"bytes32","internalType":"bytes32"},{"name":"merchant","type":"address","internalType":"address"},{"name":"customerUsername","type":"string","internalType":"string"},{"name":"amount","type":"uint256","internalType":"uint256"},{"name":"token","type":"address","internalType":"address"},{"name":"isCompleted","type":"bool","internalType":"bool"},{"name":"isCancelled","type":"bool","internalType":"bool"},{"name":"timestamp","type":"uint256","internalType":"uint256"},{"name":"expiryTimestamp","type":"uint256","internalType":"uint256"},{"name":"metadata","type":"bytes","internalType":"bytes"}],"stateMutability":"view"},{"type":"function","name":"completeCheckout","inputs":[{"name":"sessionId","type":"bytes32","internalType":"bytes32"},{"name":"facialSig","type":"tuple","internalType":"struct IFaceRecognitionValidator.FacialSignature","components":[{"name":"facialHash","type":"bytes32","internalType":"bytes32"},{"name":"timestamp","type":"uint256","internalType":"uint256"},{"name":"signature","type":"bytes","internalType":"bytes"}]}],"outputs":[],"stateMutability":"payable"},{"type":"function","name":"customerSessions","inputs":[{"name":"","type":"address","internalType":"address"},{"name":"","type":"uint256","internalType":"uint256"}],"outputs":[{"name":"","type":"bytes32","internalType":"bytes32"}],"stateMutability":"view"},{"type":"function","name":"frvmValidator","inputs":[],"outputs":[{"name":"","type":"address","internalType":"contract IFaceRecognitionValidator"}],"stateMutability":"view"},{"type":"function","name":"getCheckoutSession","inputs":[{"name":"sessionId","type":"bytes32","internalType":"bytes32"}],"outputs":[{"name":"","type":"tuple","internalType":"struct CheckoutProcessor.CheckoutSession","components":[{"name":"sessionId","type":"bytes32","internalType":"bytes32"},{"name":"merchant","type":"address","internalType":"address"},{"name":"customerUsername","type":"string","internalType":"string"},{"name":"amount","type":"uint256","internalType":"uint256"},{"name":"token","type":"address","internalType":"address"},{"name":"isCompleted","type":"bool","internalType":"bool"},{"name":"isCancelled","type":"bool","internalType":"bool"},{"name":"timestamp","type":"uint256","internalType":"uint256"},{"name":"expiryTimestamp","type":"uint256","internalType":"uint256"},{"name":"metadata","type":"bytes","internalType":"bytes"}]}],"stateMutability":"view"},{"type":"function","name":"getCustomerSessions","inputs":[{"name":"customer","type":"address","internalType":"address"}],"outputs":[{"name":"","type":"bytes32[]","internalType":"bytes32[]"}],"stateMutability":"view"},{"type":"function","name":"getMerchantSessions","inputs":[{"name":"merchant","type":"address","internalType":"address"}],"outputs":[{"name":"","type":"bytes32[]","internalType":"bytes32[]"}],"stateMutability":"view"},{"type":"function","name":"initializeCheckout","inputs":[{"name":"customerUsername","type":"string","internalType":"string"},{"name":"amount","type":"uint256","internalType":"uint256"},{"name":"token","type":"address","internalType":"address"},{"name":"expiryDuration","type":"uint256","internalType":"uint256"},{"name":"metadata","type":"bytes","internalType":"bytes"}],"outputs":[{"name":"sessionId","type":"bytes32","internalType":"bytes32"}],"stateMutability":"nonpayable"},{"type":"function","name":"isSessionValid","inputs":[{"name":"sessionId","type":"bytes32","internalType":"bytes32"}],"outputs":[{"name":"","type":"bool","internalType":"bool"}],"stateMutability":"view"},{"type":"function","name":"merchantAccount","inputs":[],"outputs":[{"name":"","type":"address","internalType":"contract MerchantAccount"}],"stateMutability":"view"},{"type":"function","name":"merchantSessions","inputs":[{"name":"","type":"address","internalType":"address"},{"name":"","type":"uint256","internalType":"uint256"}],"outputs":[{"name":"","type":"bytes32","internalType":"bytes32"}],"stateMutability":"view"},{"type":"function","name":"usernameRegistry","inputs":[],"outputs":[{"name":"","type":"address","internalType":"contract UsernameRegistry"}],"stateMutability":"view"},{"type":"event","name":"CheckoutCancelled","inputs":[{"name":"sessionId","type":"bytes32","indexed":true,"internalType":"bytes32"}],"anonymous":false},{"type":"event","name":"CheckoutCompleted","inputs":[{"name":"sessionId","type":"bytes32","indexed":true,"internalType":"bytes32"},{"name":"customer","type":"address","indexed":true,"internalType":"address"}],"anonymous":false},{"type":"event","name":"CheckoutSessionCreated","inputs":[{"name":"sessionId","type":"bytes32","indexed":true,"internalType":"bytes32"},{"name":"merchant","type":"address","indexed":true,"internalType":"address"},{"name":"customerUsername","type":"string","indexed":false,"internalType":"string"},{"name":"amount","type":"uint256","indexed":false,"internalType":"uint256"}],"anonymous":false},{"type":"error","name":"InvalidCustomer","inputs":[]},{"type":"error","name":"InvalidMerchant","inputs":[]},{"type":"error","name":"SessionAlreadyCompleted","inputs":[]},{"type":"error","name":"SessionExpired","inputs":[]},{"type":"error","name":"SessionNotFound","inputs":[]}],"bytecode":{"object":"0x60e060405234801561000f575f5ffd5b506040516119d33803806119d383398101604081905261002e91610066565b6001600160a01b0392831660805290821660a0521660c0526100a6565b80516001600160a01b0381168114610061575f5ffd5b919050565b5f5f5f60608486031215610078575f5ffd5b6100818461004b565b925061008f6020850161004b565b915061009d6040850161004b565b90509250925092565b60805160a05160c0516118da6100f95f395f81816101d101528181610cfb0152610d8001525f81816102230152818161053d01528181610b100152610ecc01525f818160d40152610bfb01526118da5ff3fe6080604052600436106100bf575f3560e01c8063a9417d8c1161007c578063e8d442ef11610057578063e8d442ef14610271578063eb2f013514610286578063f5328a10146102a5578063fa333d9b146102c4575f5ffd5b8063a9417d8c146101f3578063c57f6c3814610212578063d1c52dca14610245575f5ffd5b80632c2e14cf146100c35780633d422f2f14610113578063504f318a14610140578063618a64741461016c57806384fde6701461018b578063957f050b146101c0575b5f5ffd5b3480156100ce575f5ffd5b506100f67f000000000000000000000000000000000000000000000000000000000000000081565b6040516001600160a01b0390911681526020015b60405180910390f35b34801561011e575f5ffd5b5061013261012d3660046110e2565b6102f3565b60405190815260200161010a565b34801561014b575f5ffd5b5061015f61015a36600461110c565b61031e565b60405161010a9190611151565b348015610177575f5ffd5b50610132610186366004611258565b610539565b348015610196575f5ffd5b506101aa6101a536600461110c565b610873565b60405161010a9a999897969594939291906112ec565b3480156101cb575f5ffd5b506100f67f000000000000000000000000000000000000000000000000000000000000000081565b3480156101fe575f5ffd5b5061013261020d3660046110e2565b6109eb565b34801561021d575f5ffd5b506100f67f000000000000000000000000000000000000000000000000000000000000000081565b348015610250575f5ffd5b5061026461025f36600461136f565b610a04565b60405161010a919061138a565b61028461027f3660046113cc565b610a6d565b005b348015610291575f5ffd5b506102846102a036600461110c565b610e4e565b3480156102b0575f5ffd5b506102646102bf36600461136f565b611000565b3480156102cf575f5ffd5b506102e36102de36600461110c565b611067565b604051901515815260200161010a565b6002602052815f5260405f20818154811061030c575f80fd5b905f5260205f20015f91509150505481565b6103826040518061014001604052805f81526020015f6001600160a01b03168152602001606081526020015f81526020015f6001600160a01b031681526020015f151581526020015f151581526020015f81526020015f8152602001606081525090565b5f82815260208181526040918290208251610140810184528154815260018201546001600160a01b03169281019290925260028101805492939192918401916103ca90611416565b80601f01602080910402602001604051908101604052809291908181526020018280546103f690611416565b80156104415780601f1061041857610100808354040283529160200191610441565b820191905f5260205f20905b81548152906001019060200180831161042457829003601f168201915b50505091835250506003820154602082015260048201546001600160a01b038116604083015260ff600160a01b8204811615156060840152600160a81b9091041615156080820152600582015460a0820152600682015460c082015260078201805460e0909201916104b290611416565b80601f01602080910402602001604051908101604052809291908181526020018280546104de90611416565b80156105295780601f1061050057610100808354040283529160200191610529565b820191905f5260205f20905b81548152906001019060200180831161050c57829003601f168201915b5050505050815250509050919050565b5f5f7f00000000000000000000000000000000000000000000000000000000000000006001600160a01b0316637d1febd48a8a6040518363ffffffff1660e01b8152600401610589929190611476565b602060405180830381865afa1580156105a4573d5f5f3e3d5ffd5b505050506040513d601f19601f820116820180604052508101906105c89190611491565b90506001600160a01b03811661061a5760405162461bcd60e51b815260206004820152601260248201527110dd5cdd1bdb595c881b9bdd08199bdd5b9960721b60448201526064015b60405180910390fd5b33898989894289896040516020016106399897969594939291906114ac565b60408051601f1981840301815282825280516020918201206101408401835280845233848301528251601f8d0183900483028101830184528c815290955091830191908c908c90819084018382808284375f920182905250938552505050602082018a90526001600160a01b03891660408301526060820181905260808201524260a0820181905260c0909101906106d2908890611504565b815260200185858080601f0160208091040260200160405190810160405280939291908181526020018383808284375f920182905250939094525050848152602081815260409182902084518155908401516001820180546001600160a01b0319166001600160a01b0390921691909117905590830151909150600282019061075b9082611589565b5060608201516003820155608082015160048201805460a085015160c08601511515600160a81b0260ff60a81b19911515600160a01b026001600160a81b03199093166001600160a01b0390951694909417919091171691909117905560e08201516005820155610100820151600682015561012082015160078201906107e29082611589565b5050335f81815260016020818152604080842080548085018255908552828520018890556001600160a01b0387168452600282528084208054938401815584529220018590555190915083907f768e345451e19afc682ec91ae080676d108c283e994f5aaa82be0bf0484fbe129061085f908d908d908d90611644565b60405180910390a350979650505050505050565b5f6020819052908152604090208054600182015460028301805492936001600160a01b03909216926108a490611416565b80601f01602080910402602001604051908101604052809291908181526020018280546108d090611416565b801561091b5780601f106108f25761010080835404028352916020019161091b565b820191905f5260205f20905b8154815290600101906020018083116108fe57829003601f168201915b505050506003830154600484015460058501546006860154600787018054969794966001600160a01b038516965060ff600160a01b8604811696600160a81b9096041694919061096a90611416565b80601f016020809104026020016040519081016040528092919081815260200182805461099690611416565b80156109e15780601f106109b8576101008083540402835291602001916109e1565b820191905f5260205f20905b8154815290600101906020018083116109c457829003601f168201915b505050505090508a565b6001602052815f5260405f20818154811061030c575f80fd5b6001600160a01b0381165f90815260016020908152604091829020805483518184028101840190945280845260609392830182828015610a6157602002820191905f5260205f20905b815481526020019060010190808311610a4d575b50505050509050919050565b5f82815260208190526040902060018101546001600160a01b0316610aa5576040516396c95f8160e01b815260040160405180910390fd5b6004810154600160a01b900460ff1615610ad257604051630ae9b8e960e41b815260040160405180910390fd5b8060060154421115610af757604051630fe82d2560e11b815260040160405180910390fd5b604051631f47faf560e21b81525f906001600160a01b037f00000000000000000000000000000000000000000000000000000000000000001690637d1febd490610b489060028601906004016116e6565b602060405180830381865afa158015610b63573d5f5f3e3d5ffd5b505050506040513d601f19601f82011682018060405250810190610b879190611491565b90506001600160a01b0381163314610bb257604051630733d43560e41b815260040160405180910390fd5b600382015460048301546040515f92610be09288926001600160a01b039091169060078801906020016116f8565b6040516020818303038152906040528051906020012090505f7f00000000000000000000000000000000000000000000000000000000000000006001600160a01b031663e2680a6b8484886040518463ffffffff1660e01b8152600401610c49939291906117f9565b602060405180830381865afa158015610c64573d5f5f3e3d5ffd5b505050506040513d601f19601f82011682018060405250810190610c88919061181f565b905080610cd75760405162461bcd60e51b815260206004820152601860248201527f496e76616c69642066616369616c207369676e617475726500000000000000006044820152606401610611565b6003840154600480860154604051634dd9dfef60e11b81525f936001600160a01b037f0000000000000000000000000000000000000000000000000000000000000000811694639bb3bfde94610d3c9460028d0194939190911691610e10910161183e565b6020604051808303815f875af1158015610d58573d5f5f3e3d5ffd5b505050506040513d601f19601f82011682018060405250810190610d7c9190611875565b90507f00000000000000000000000000000000000000000000000000000000000000006001600160a01b0316634b8f39cb3483896040518463ffffffff1660e01b8152600401610dcd92919061188c565b5f604051808303818588803b158015610de4575f5ffd5b505af1158015610df6573d5f5f3e3d5ffd5b50505060048701805460ff60a01b1916600160a01b17905550506040516001600160a01b0385169088907f23aa7a5a39695311a4313a7af017287d0d1901d257c8eeeacca2dc532c55616c905f90a350505050505050565b5f81815260208190526040902060018101546001600160a01b0316610e86576040516396c95f8160e01b815260040160405180910390fd5b6004810154600160a01b900460ff1615610eb357604051630ae9b8e960e41b815260040160405180910390fd5b604051631f47faf560e21b81525f906001600160a01b037f00000000000000000000000000000000000000000000000000000000000000001690637d1febd490610f049060028601906004016116e6565b602060405180830381865afa158015610f1f573d5f5f3e3d5ffd5b505050506040513d601f19601f82011682018060405250810190610f439190611491565b60018301549091506001600160a01b0316331480610f695750336001600160a01b038216145b80610f775750816006015442115b610fbc5760405162461bcd60e51b8152602060048201526016602482015275155b985d5d1a1bdc9a5e9959081d1bc818d85b98d95b60521b6044820152606401610611565b60048201805460ff60a81b1916600160a81b17905560405183907fac99e1c4dea46a85aa628d117e4dcdac7efaf85c05edbf299f56d71ee3245357905f90a2505050565b6001600160a01b0381165f90815260026020908152604091829020805483518184028101840190945280845260609392830182828015610a6157602002820191905f5260205f2090815481526020019060010190808311610a4d5750505050509050919050565b5f81815260208190526040812060018101546001600160a01b03161580159061109c57506004810154600160a01b900460ff16155b80156110b457506004810154600160a81b900460ff16155b80156110c4575080600601544211155b9392505050565b6001600160a01b03811681146110df575f5ffd5b50565b5f5f604083850312156110f3575f5ffd5b82356110fe816110cb565b946020939093013593505050565b5f6020828403121561111c575f5ffd5b5035919050565b5f81518084528060208401602086015e5f602082860101526020601f19601f83011685010191505092915050565b60208152815160208201525f602083015161117760408401826001600160a01b03169052565b5060408301516101406060840152611193610160840182611123565b90506060840151608084015260808401516111b960a08501826001600160a01b03169052565b5060a084015180151560c08501525060c084015180151560e08501525060e0840151610100840152610100840151610120840152610120840151601f198483030161014085015261120a8282611123565b95945050505050565b5f5f83601f840112611223575f5ffd5b50813567ffffffffffffffff81111561123a575f5ffd5b602083019150836020828501011115611251575f5ffd5b9250929050565b5f5f5f5f5f5f5f60a0888a03121561126e575f5ffd5b873567ffffffffffffffff811115611284575f5ffd5b6112908a828b01611213565b9098509650506020880135945060408801356112ab816110cb565b935060608801359250608088013567ffffffffffffffff8111156112cd575f5ffd5b6112d98a828b01611213565b989b979a50959850939692959293505050565b8a81526001600160a01b038a166020820152610140604082018190525f906113169083018b611123565b606083018a90526001600160a01b038916608084015287151560a084015286151560c084015260e08301869052610100830185905282810361012084015261135e8185611123565b9d9c50505050505050505050505050565b5f6020828403121561137f575f5ffd5b81356110c4816110cb565b602080825282518282018190525f918401906040840190835b818110156113c15783518352602093840193909201916001016113a3565b509095945050505050565b5f5f604083850312156113dd575f5ffd5b82359150602083013567ffffffffffffffff8111156113fa575f5ffd5b83016060818603121561140b575f5ffd5b809150509250929050565b600181811c9082168061142a57607f821691505b60208210810361144857634e487b7160e01b5f52602260045260245ffd5b50919050565b81835281816020850137505f828201602090810191909152601f909101601f19169091010190565b602081525f61148960208301848661144e565b949350505050565b5f602082840312156114a1575f5ffd5b81516110c4816110cb565b6001600160601b03198960601b168152868860148301375f8782018760148201526001600160601b03198760601b166034820152856048820152838560688301375f9301606801928352509098975050505050505050565b8082018082111561152357634e487b7160e01b5f52601160045260245ffd5b92915050565b634e487b7160e01b5f52604160045260245ffd5b601f82111561158457805f5260205f20601f840160051c810160208510156115625750805b601f840160051c820191505b81811015611581575f815560010161156e565b50505b505050565b815167ffffffffffffffff8111156115a3576115a3611529565b6115b7816115b18454611416565b8461153d565b6020601f8211600181146115e9575f83156115d25750848201515b5f19600385901b1c1916600184901b178455611581565b5f84815260208120601f198516915b8281101561161857878501518255602094850194600190920191016115f8565b508482101561163557868401515f19600387901b60f8161c191681555b50505050600190811b01905550565b604081525f61165760408301858761144e565b9050826020830152949350505050565b5f815461167381611416565b80855260018216801561168d57600181146116a9576116dd565b60ff1983166020870152602082151560051b87010193506116dd565b845f5260205f205f5b838110156116d45781546020828a0101526001820191506020810190506116b2565b87016020019450505b50505092915050565b602081525f6110c46020830184611667565b8481528360208201526001600160601b03198360601b1660408201525f5f835461172181611416565b600182168015611738576001811461175357611786565b60ff1983166054870152605482151583028701019350611786565b865f5260205f205f5b8381101561177b5781548882016054015260019091019060200161175c565b505060548287010193505b509198975050505050505050565b80358252602080820135908301525f604082013536839003601e190181126117ba575f5ffd5b820160208101903567ffffffffffffffff8111156117d6575f5ffd5b8036038213156117e4575f5ffd5b6060604086015261120a60608601828461144e565b60018060a01b0384168152826020820152606060408201525f61120a6060830184611794565b5f6020828403121561182f575f5ffd5b815180151581146110c4575f5ffd5b608081525f6118506080830187611667565b6020830195909552506001600160a01b03929092166040830152606090910152919050565b5f60208284031215611885575f5ffd5b5051919050565b828152604060208201525f611489604083018461179456fea2646970667358221220c662bb16859ab3f9fe10232071bff99c6b5bee2c930ca223038d702e82f0d29964736f6c634300081c0033","linkReferences":{}},"methodIdentifiers":{"cancelCheckout(bytes32)":"eb2f0135","checkoutSessions(bytes32)":"84fde670","completeCheckout(bytes32,(bytes32,uint256,bytes))":"e8d442ef","customerSessions(address,uint256)":"3d422f2f","frvmValidator()":"2c2e14cf","getCheckoutSession(bytes32)":"504f318a","getCustomerSessions(address)":"f5328a10","getMerchantSessions(address)":"d1c52dca","initializeCheckout(string,uint256,address,uint256,bytes)":"618a6474","isSessionValid(bytes32)":"fa333d9b","merchantAccount()":"957f050b","merchantSessions(address,uint256)":"a9417d8c","usernameRegistry()":"c57f6c38"},"id":8}